:100000000200D3FFFFFFFFFFFFFFFFFFFFFFFFFF28
:10001000FFFFFFFFFFFFFFFFFFFFFFFFFFFFFFFFF0
:10002000FFFFFFFFFFFFFFFFFFFFFF021FAFFFFF0D
:10003000FFFFFF02538DFFFFFFFFFFFFFFFFFFFFEB
:10004000FFFFFFFFFFFFFFFFFFFFFFFFFFFFFFFFC0
:10005000FFFFFFFFFFFFFFFFFFFFFF021FC2FFFFCA
:10006000FFFFFFFFFFFFFFFFFFFFFF025263FFFFE6
:10007000FFFFFFFFFFFFFFFFFFFFFF0252F8FFFF41
:10008000FFFFFF02520400000080FB1200E2B900F3
:10009000030200CDE4900001782F791B8002F0A3C9
:1000A000D8FCD9FA901A2FAA82AB839000E578D5B4
:1000B00079038015E493A3AC82AD838A828B83F0AD
:1000C000A3AA82AB838C828D83D8E9D9E712230659
:1000D00012008675D0007581BF75108075931E0261
:1000E000008B79012200C1814001C0804101C080A4
:1000F0004100C1814001C0804100C1814000C181F7
:100100004001C0804101C0804100C1814000C181E7
:100110004001C0804100C1814001C0804101C080D8
:100120004100C1814001C0804100C1814000C181C6
:100130004001C0804100C1814001C0804101C080B8
:100140004100C1814000C1814001C0804101C080A7
:100150004100C1814001C0804100C1814000C18196
:100160004001C0804101C0804100C1814000C18187
:100170004001C0804100C1814001C0804101C08078
:100180004100C1814000C1814001C0804101C08067
:100190004100C1814001C0804100C1814000C18156
:1001A0004001C0804100C1814001C0804101C08048
:1001B0004100C1814001C0804100C1814000C18136
:1001C0004001C0804101C0804100C1814000C18127
:1001D0004001C0804100C1814001C0804101C08018
:1001E0004100C1814000C0C101C30302C2C606076D
:1001F000C705C5C404CC0C0DCD0FCFCE0E0ACACB9B
:100200000BC90908C8D81819D91BDBDA1A1EDEDF9A
:100210001FDD1D1CDC14D4D515D71716D6D212132A
:10022000D311D1D010F03031F133F3F23236F6F78A
:1002300037F53534F43CFCFD3DFF3F3EFEFA3A3BDA
:10024000FB39F9F83828E8E929EB2B2AEAEE2E2FBA
:10025000EF2DEDEC2CE42425E527E7E62622E2E36A
:1002600023E12120E0A06061A163A3A26266A6A7AA
:1002700067A56564A46CACAD6DAF6F6EAEAA6A6B1A
:10028000AB69A9A86878B8B979BB7B7ABABE7E7F1A
:10029000BF7DBDBC7CB47475B577B7B67672B2B3AA
:1002A00073B17170B05090915193535292965657CA
:1002B00097559594549C5C5D9D5F9F9E5E5A9A9B5A
:1002C0005B99595898884849894B8B8A4A4E8E8F3A
:1002D0004F8D4D4C8C4484854587474686824243EA
:1002E00083418180400000627300001242F332F2C9
:1002F000320B0C0D0E0F12141517190310051007F1
:100300001009100B100D100F101110131015100400
:1003100010061008100A100C100E101010121014F5
:1003200010161003000500070009000B000D000F58
:10033000001100130015000400060008000A000C5C
:10034000000E0010001200140016000B0310030032
:100350000A404244484C505458141E1F1C1F1E1F74
:100360001E1F1F1E1F1E1F01FF00000000000000B7
:100370000000000049000000000100000000010032
:100380000064000000F40100000A000000E803001F
:100390000010270000A086010040420F00809698C0
:1003A0000000E1F50500CA9A3B60EA000000B84C85
:1003B0000A79EA000020A10700E36670100809E34B
:1003C00066700A0809E36670040809E36622E066BD
:1003D000701008A3E066700A08A3E066700408A322
:1003E000E06622C3E7960809E7960809E796080938
:1003F000E79622C3E3960809E3960809E3960809FD
:10040000E39622C3E09608A3E09608A3E09608A32B
:10041000E09622080808EAC0E0EBC0E086F0E7A416
:10042000FA180986F0E7A42AFA180986F0E7A42A40
:10043000FA180986F0E7A42AFA1986F0E7A4FBE582
:10044000F02AFA190886F0E7A42BFBE5F03AFA192E
:100450000886F0E7A42BFBE5F03AFA18180986F0B5
:10046000E7A4C5F02BFBE43AFA1908E7C5F0C6A4E7
:1004700026F6E5F03BFBE43AFA1886F0E7A4F6E549
:10048000F00826F6E43B08F6E43A08F6D0E0FBD0A4
:10049000E0FA22E4CFC0E0E4CEC0E0E4CDC0E0E486
:1004A000CCC0E075F020C3E633F608E633F608E684
:1004B00033F608E633F6181818EC33FCED33FDEE8E
:1004C00033FEEF33FFC3EC9709ED9709EE9709EF81
:1004D00097191919400FFFEC97FC09ED97FD09EEEC
:1004E00097FE191906D5F0BEECF709EDF709EEF7FE
:1004F00009EFF7191919D0E0FCD0E0FDD0E0FED0EB
:10050000E0FF226016080808C6C313C618C613C643
:1005100018C613C618C613C6D5E0EA227009080823
:1005200008226016181818C6C333C608C633C60892
:10053000C633C608C633C6D5E0EA22E627F6080960
:10054000E637F60809E637F60809E637F622E02628
:10055000F608A3E036F608A3E036F608A3E036F680
:1005600022E026F008A3E036F008A3E036F008A366
:10057000E036F022E326F30809E336F30809E33610
:10058000F30809E336F322C3E0C696F608A3E0C6F3
:1005900096F608A3E0C696F608A3E0C696F622E310
:1005A00046F30809E346F30809E346F30809E3467E
:1005B000F322E3F60809E3F60809E3F60809E3F68F
:1005C00022E0F608A3E0F608A3E0F608A3E0F6228E
:1005D000C9C0E0E7F20809E7F20809E7F20809E70D
:1005E000F2D0E0F922E6F008A3E6F008A3E6F0086E
:1005F000A3E6F022CAC0E0E6F30908DAFAD0E0FA8E
:1006000022CAC0E0E2F30908DAFAD0E0FA22CAC04E
:10061000E0E0F208A3DAFAD0E0FA22C3E498F8E4C2
:1006200099F912065C8026C3E49AFAE49BFBE92060
:10063000E7E912065CE498F8E499F922C3E498F833
:10064000E499F912065CE498F8E499F9C3E49AFA9B
:10065000E49BFB22EB20E7CFE920E7E0B90010BBE9
:100660000008E88AF084F8AAF022E4FBC8FA22EB3A
:1006700070227B10C833C8C933C9335007C39AC32B
:10068000DBF280069A50012ADBEAC833F4C8C9338A
:10069000F4C9FA2275F008E4C833C8C933C933C9AC
:1006A0009AC99B5004C92AC93BD5F0ECFBC833F466
:1006B000C8E4C9FA22600D08C6A2E713C618C6131B
:1006C000C6D5E0F322600C08C6C313C618C613C60D
:1006D000D5E0F422700422600D18C6C333C608C6E4
:1006E00033C6D5E0F41822E473D083D0822510F805
:1006F000C510C39824FBCEF208E520F208E9C0E05B
:100700007908E709F208DEFAD0E0F9EFF208D0E064
:10071000FED0E0F208EEF208E473A810E2FE08E270
:1007200008F520E9C0E07908E208F709DFFAE208F5
:10073000FFD0E0F9E208C0E0E208C0E0881022C083
:10074000D0C0F088F02510F8C510C39824F3C0E09D
:10075000E5F0F208E9F208EAF208EBF208D0E0FB73
:100760007908E709F208DBFAE582F208E583F20886
:10077000D0E0F208D0E0F208E520F208ECF208ED53
:10078000F208EEF208EFF222A810E208C0E0E20858
:10079000C0E0E208FAE208FB7908E208F709DFFAAC
:1007A000E208F582E208F583E208F5F0E208F5D008
:1007B000E208F520E208FCE208FDE208FEE208FF9C
:1007C0008810D0E0F9D0E0F8D0E0327402800274F2
:1007D00001C9C0E0E510C399F510C91205F4D0E0D5
:1007E000F92274028000C9C0E0E510C399F510C970
:1007F000120601D0E0F922D083D082C5F0E493A3A1
:10080000C5F0C395F0F5F0E493A3C395F04005E57A
:10081000F0048001E475F002A42582F582E5F0354C
:1008200083F583E493A3C0E0E493C0E022000000DA
:1008300000000000000000000000007FFC0000003D
:1008400003FFFF8000000FFFFFC000001FFFFFE05D
:1008500000003FF03FF000007E0001F800007C0047
:10086000007C0000F800003C0000F000001C0000CC
:10087000F000001C0000E000001C0000E000001C74
:100880000000E000001C0000F000001C0000F00070
:10089000001C00007800003C00007C000078000094
:1008A0003F8003F800003FFFFFF000000FFFFFE074
:1008B000000007FFFF80000001FFFE000000001F96
:1008C000F000000000000000000000000000000038
:1008D0000000000000000000000000000000000018
:1008E0000000000000000000038000000000038002
:1008F00000000000038000000000078000000000EE
:100900000780000000000780000000000F8000004A
:1009100000001F80000000007FFFFFFC0000FFFFC1
:10092000FFFC0000FFFFFFFC0000FFFFFFFC0000DA
:1009300000000000000000000000000000000000B7
:1009400000000000000000000000000000000000A7
:100950000000000000000000000000000000000097
:100960000000000000000000000000000000000C7B
:10097000000001E000FC000007E001FC00001FE0B7
:1009800007FC00003FE00FFC00003F800FBC0000B0
:100990007C001F3C000078003E3C0000F0003C3C26
:1009A0000000F000783C0000E000783C0000E0002F
:1009B000F03C0000E000F03C0000E001E03C000002
:1009C000F001E03C0000F003C03C0000F007C03C38
:1009D00000007807803C00007E1F803C00003FFF45
:1009E000003C00001FFE003C00000FFC003C00002B
:1009F00007F8003C000000000000000000000000BC
:100A000000000000000000000000000000000040A6
:100A10000780000007C007E000001FC007F00000CB
:100A20003FC007F800007FC000F800007C00007C99
:100A30000000F800003C0000F000001C0000F00086
:100A4000001C0000E007001C0000E007001C000084
:100A5000E007001C0000E007001C0000F007001C7D
:100A60000000F00F801C0000F00F803C00007C1F95
:100A7000C03C00007FFFE07800003FFDFFF8000071
:100A80001FF9FFF000000FF0FFE0000001807FC0C1
:100A9000000000003F000000000000000000000017
:100AA0000000000000003E00000000007E0000008A
:100AB0000000FE0000000001FE0000000007FE0034
:100AC0000000000FDE000000001F1E000000003EBE
:100AD0001E00000000FC1E00000001F01E000000CF
:100AE00003E01E00000007C01E0000000F801E0073
:100AF00000003E001E0000007C001E000000FFFF02
:100B0000FFFC0000FFFFFFFC0000FFFFFFFC0000F8
:100B1000FFFFFFFC000000001E00000000001E00A0
:100B2000000000001E00000000001E000000000089
:100B30001E00000000000000000000000000000097
:100B4000000000000000000003C00000000F83E070
:100B5000000007FF83F00000FFFF83F80000FFFFA5
:100B600080780000FFCF003C0000F00E001C000069
:100B7000F01E001C0000F01C001C0000F01C000C0B
:100B80000000F01C000C0000F01C000C0000F01C29
:100B9000001C0000F01E001C0000F01E001C0000E5
:100BA000F01F003C0000F00F00780000F00FC1F8CB
:100BB0000000F007FFF00000F007FFF00000F00376
:100BC000FFC000000000FF80000000001C000000CB
:100BD0000000000000000000000000000000000015
:100BE0000000003FFC00000001FFFF80000007FF45
:100BF000FFE000000FFFFFF000001FE3FFF8000020
:100C00003F0780F800007C0F003C0000780E003C9D
:100C10000000F01E001C0000F01E001C0000F01C74
:100C2000001C0000E01C001C0000E01C001C000078
:100C3000E01C001C0000F01E001C0000F01E003C28
:100C40000000780F003C00007C0F80F800007F0758
:100C5000FFF800003F07FFF000001F03FFE0000067
:100C60000701FFC0000000003E000000000000007F
:100C70000000000000000000000000000000F00084
:100C800000000000F00000000000F0000000000084
:100C9000F00000000000F00000000000F000003C48
:100CA0000000F00001FC0000F0000FFC0000F0006C
:100CB0003FFC0000F000FFF00000F001FF800000AA
:100CC000F007FC000000F01FE0000000F03F800093
:100CD0000000F07E00000000F1F800000000F3F0DA
:100CE00000000000F7C000000000FF8000000000CE
:100CF000FF0000000000FE0000000000F8000000FF
:100D00000000F000000000000000000000000000F3
:100D10000000000000000000000000003F80000014
:100D200007E07FE000001FF0FFF000003FF9FFF850
:100D300000007FFFF1F800007E7FC07C0000781F7C
:100D4000803C0000F00F801C0000F00F001C000031
:100D5000E00F001C0000E00F001C0000E007001C7A
:100D60000000E00F001C0000F00F001C0000F00F5E
:100D7000001C0000F81F801C0000783FC03C0000F1
:100D80007FFFE07800003FF9FFF800001FF9FFF057
:100D900000000FE0FFE0000000007FC00000000046
:100DA0001E00000000000000000000000000000025
:100DB00000000000000001F80000000007FF01C073
:100DC00000001FFF81F000003FFFC1F800003F8FCF
:100DD000C1F800007C03E03C00007801E01C00004A
:100DE000F000F01C0000F000F01C0000E000F00C2F
:100DF0000000E000700C0000E000700C0000E0005B
:100E0000F01C0000F000F01C0000F000E03C0000CE
:100E10007801E07800007C03C1F800007F0F87F0C4
:100E200000003FFFFFE000001FFFFFC0000007FFC2
:100E3000FF00000001FFFC000000001F8000000018
:100E400000000000000000000000000000000000A2
:100E50000000000000000000000000000000000092
:100E6000007C00000000007C00000000007C00000E
:100E70000000007C00000000007C0000000000007A
:100E80000000000000000000000000000000000062
:100E90000000000000000000000000000000000052
:100EA0000000000000000000000000000000000042
:100EB0000000000000000000000000000000000032
:100EC0000000000000000000000000000000000022
:100ED0000000000000000000000000000000000012
:100EE000000000000000000000000000000003C03F
:100EF00007C000000FF007E000003FF807F0000017
:100F00003FFC07F800007E7E00780000F83E003CC1
:100F10000000F01F001C0000E00F001C0000E00FAC
:100F2000001C0001E00F000C0007FFFFFFFFE007BF
:100F3000FFFFFFFFE001E007800C0000E007800CEE
:100F40000000E007801C0000F003C01C0000F0035C
:100F5000C01C00007C01E03C00007F01F9F80000AB
:100F60003F01FFF800001F00FFF0000007007FC0F6
:100F7000000000001F000000000000000053C67FBA
:100F8000E59EA2E740FA43F10275FA0075FC1153A1
:100F9000F4F743FE0843F4E0E5F4D29353F85FE539
:100FA000F853F83FE5F843FC20228008EA24FFFAD2
:100FB000EB34FFFBC3EA9402EB940050EF2274F38E
:100FC0001206E9E51024F8F510E5102404F8EAF219
:100FD00008EBF208ECF208EDF2901CBF780812055D
:100FE000C1901CBF780C1205C1A810740C1205D05A
:100FF000901CBF780C1205C1A810740C1205D0808B
:1010000028901CC3780812054E901CC7780C120556
:10101000C1780C79081203E340E7901CC3780812EA
:1010200005C1A9107808120574E510FAE51024042A
:10103000F978081205B2EAF978081203F3500A9019
:101040001CBF78081205C180C0E5102408F5107F88
:101050000802071A74FA1206E9E9FFC2907E0080BE
:1010600019C291D2907A057B00120FAAC290EFC3E9
:1010700033FF7A057B00120FAA0EEEC394085009C5
:10108000EFA2E750DCD29180DA121D667F010207E1
:101090001AEEC0E0E9FED287C287C2867A057B00DD
:1010A000120FAAEEF91210547A057B00120FAAD281
:1010B00087121D66D0E0FE22EEC0E0E9FED287C2B4
:1010C00087D2867A057B00120FAAEEF91210547AA5
:1010D000057B00120FAA121D66D287D0E0FE2212F5
:1010E0001D66800A7A057B00120FAA121D66A28473
:1010F00040F2121D667A647B00120FAA121D66224E
:1011000074F71206E9792112109179401210B8791A
:101110002212109179C71210B87920121091121D65
:10112000661210DF121D66901CCB78081205C1AA4A
:1011300008AB09AC0AAD0B120FBE121D667F04028C
:10114000071A74F71206E9121D66901CCB78081274
:1011500005C1AA08AB09AC0AAD0B120FBE121D6681
:10116000C285901CCF78081205C1AA08AB09AC0A49
:10117000AD0B120FBED285121D66901CCF780812DF
:1011800005C1AA08AB09AC0AAD0B120FBE121D6651
:101190001210DF121D6679121210911210DF121D4B
:1011A00066797412109179541210B8797E121091E8
:1011B000793B1210B8790112109179271210B87981
:1011C000011210B879001210B8791112109179013A
:1011D0001210B8794412109179001210B8790F12D8
:1011E00010B8794512109179271210B879011210B0
:1011F000B879001210B879001210B8793C12109129
:1012000079011210B8791812109179801210B879FA
:101210002212109179B11210B87920121091121087
:10122000DF121D667F0402071A74F31206E9E51047
:1012300024F2F510E5102402F8EAF208EBF2E510CA
:101240002408F8ECF208EDF2E510241BF8E2F508AA
:1012500008E2F509E510241FF8E2FA08E2FBA810FD
:101260007400F2087400F2E5102406F87400F20825
:101270007400F2E5102404F87400F2087400F2E53A
:1012800010240CF87400F2087400F2E510240AF837
:101290007400F2087400F2EAF8EBF9E8FCE9FDE505
:1012A000102408F8E22401FA08E23400FBE51024D7
:1012B00002F8E2F50C08E2F50DEAC3950CFAEB959D
:1012C0000DFBECF8EDF912065CE8FAE9FBE51024F9
:1012D0000AF8EAF208EBF285080C85090D74037828
:1012E0000C1206C5E5102406F8E50CF208E50DF22F
:1012F000E510241DF8E2F50C08E2F50D7403780CF6
:101300001206C5E5102404F8E50CF208E50DF2A874
:1013100008A9097A087B0012065C8A088B09AE08C6
:10132000AF09750E00750F00800CE50E2401F50E57
:10133000E50F3400F50FC3E50E9428E50F94014046
:10134000030217AFA8107400F2087400F2021459D7
:10135000E5102402F8E2FA08E2FBC3E50E9AE50F75
:101360009B500302144EE5102408F8E2FA08E2FB51
:10137000C3EA950EEB950F500302144EA810E2FA43
:1013800008E2FBE5102404F8E22401FC08E2340042
:10139000FDEC6A7002ED6B600302144EE510240C44
:1013A000F8E22EFA08E23FFBC3EA9409EB940050FE
:1013B0000302144E7508FF750900EE78081206B591
:1013C000AA0EEA75F010A4CAACF075F000A42CFCCB
:1013D00075F010E50FA42CFBA810E22AFA08E23BF6
:1013E000FBEA24E2F582EB3400F583AA08E05AC058
:1013F000E0E5102421F8E2250AFA08E2350BFB7437
:10140000FF2AF58274FF3BF583E0F508750900EECD
:10141000FA7408C39A78081206D4D0E04508C0E0F0
:10142000AA0EEA75F010A4CAACF075F000A42CFC6A
:1014300075F010E50FA42CFBA810E22AFA08E23B95
:10144000FBEA24E2F582EB3400F583D0E0F0A8104B
:10145000E22401F208E23400F2A810E2FA08E2FB0A
:10146000C3EA9410EB9400400302132AE51024020F
:10147000F8E2FA08E2FBE50EC39AF508E50F9BF5E2
:1014800009E510240AF8E2FA08E2FBEA8508F0A46C
:10149000CAACF08509F0A42CFC8508F0EBA42CFB69
:1014A000A810E22AFA08E23BFBE5102406F8E2FC69
:1014B00008E2FDEAC39CF50AEB9DF50BE51024025A
:1014C000F8E2FA08E2FBC3E50E9AE50F9B5003022F
:1014D0001599E5102408F8E2FA08E2FBC3EA950E34
:1014E000EB950F5003021599A810E2FA08E2FBE50C
:1014F000102406F8E2FC08E2FDEC6A7002ED6B6075
:10150000030215997508FF750900EEFA7408C39A6D
:1015100078081206D4AA0EEA75F010A4CAACF075C9
:10152000F000A42CFC75F010E50FA42CFBA810E231
:101530002AFA08E23BFBEA24E2F582EB3400F58369
:10154000AA08E05AC0E0E5102421F8E2250AF58255
:1015500008E2350BF583E0F508750900EE7808120E
:1015600006B5D0E04508C0E0AA0EEA75F010A4CA9E
:10157000ACF075F000A42CFC75F010E50FA42CFB6A
:10158000A810E22AFA08E23BFBEA24E2F582EB34F7
:1015900000F583D0E0F002144EE5102402F8E2FAE0
:1015A00008E2FBC3E50E9AE50F9B5003021676E5B1
:1015B000102408F8E2FA08E2FBC3EA950EEB950F57
:1015C0005003021676E5102406F8E2FA08E2FBA8BA
:1015D00010E2FC08E2FDC3EA9CEB9D400302167694
:1015E000A810E2FA08E2FBE5102404F8E2FC08E2A5
:1015F000FDC3EA9CEB9D507EE5102421F8E2250A0C
:10160000FA08E2350BFB74FF2AF58274FF3BF58381
:10161000E0F508750900EEFA7408C39A7808120616
:10162000D4C008E5102421F8E2250AF58208E23545
:101630000BF583E0F508750900EE78081206B5D0C1
:10164000E04508C0E0AA0EEA75F010A4CAACF07537
:10165000F000A42CFC75F010E50FA42CFBA810E200
:101660002AFA08E23BFBEA24E2F582EB3400F58338
:10167000D0E0F002144EE5102402F8E2FA08E2FB92
:10168000C3E50E9AE50F9B5003021350E5102408A2
:10169000F8E2FA08E2FBC3EA950EEB950F5003025D
:1016A0001350A810E2FA08E2FBE5102404F8E2FC6B
:1016B00008E2FDEC6A7002ED6B60030213507400E7
:1016C0006E700374006F7003021761AA0EEA75F062
:1016D00010A4CAACF075F000A42CFC75F010E50F56
:1016E000A42CFBA810E22AFA08E23BFBEA24E2F56C
:1016F00082EB3400F583E0F508750900EE780812F6
:1017000006B5C008E5102421F8E2250AFA08E235FA
:101710000BFB74FF2AF58274FF3BF583E0F5087537
:101720000900EEFA7408C39A78081206D4D0E0458E
:1017300008C0E0AA0EEA75F010A4CAACF075F0007B
:10174000A42CFC75F010E50FA42CFBA810E22AFADB
:1017500008E23BFBEA24E2F582EB3400F583D0E0BB
:10176000F074006E700374006F7041E5102421F86E
:10177000E2250AF58208E2350BF583E0C0E0AA0E07
:10178000EA75F010A4CAACF075F000A42CFC75F05A
:1017900010E50FA42CFBA810E22AFA08E23BFBEAB2
:1017A00024E2F582EB3400F583D0E0F002144EE53C
:1017B00010240EF5107F0802071A74F71206E9EAE2
:1017C000FEEBFF794E12109179001210B8794F128A
:1017D000109179271210B879011210B81210DF7920
:1017E00024121091750800750900801BEE2508F57C
:1017F00082EF3509F583E0F91210B8E5082401F508
:1018000008E5093400F509C3E5089480E509941258
:1018100040DA901CC378081205C1AA08AB09AC0ACB
:10182000AD0B120FBE121D667F0402071A74F71269
:1018300006E9791012109179011210B8121D669004
:101840001CCB78081205C1AA08AB09AC0AAD0B1273
:101850000FBE901CCB78081205C1AA08AB09AC0AD0
:10186000AD0B120FBE121D667F0402071A74F71229
:1018700006E9E9FE1211427508807509127808120E
:1018800007CB7CE27D007A007B008E08750900E5BD
:1018900008249EF582E509341CF583E0F9121F083F
:1018A000051005107AE27B001217BA121D6612119C
:1018B00000121D66901CCB78081205C1AA08AB095E
:1018C000AC0AAD0B120FBE121D6612182D7F04025A
:1018D000071A74F31206E9E51024EEF510E510245A
:1018E00004F8EAF208EBF2E5102406F8ECF208ED51
:1018F000F2900001E5102408F8740A12060E7E002A
:101900007C007D0080177400C0E0ECFAE51024082C
:101910002AF8D0E0F2EC2401FCED3400FDC3EC9495
:101920000AED940040E0901C3778081205C1A81019
:1019300074081205D0A910780C1205B2901CD37847
:10194000081205C1780C7908120493E51024082EBA
:10195000F8E508F20EA910901CD378081205C1789A
:10196000081203F3402FA91078081205B2901CD377
:10197000780C1205C17808790C120493901CD37866
:101980000C1205C17808790C120493E51024082E76
:10199000F8E50CF20EA910901CCB78081205C1785E
:1019A000081203F3402FA91078081205B2901CCB3F
:1019B000780C1205C17808790C120493901CD37826
:1019C0000C1205C17808790C120493E51024082E36
:1019D000F8E50CF20EA910901CD778081205C17812
:1019E000081203F3402FA91078081205B2901CD7F3
:1019F000780C1205C17808790C120493901CD378E6
:101A00000C1205C17808790C120493E51024082EF5
:101A1000F8E50CF20EA910901CDB78081205C178CD
:101A2000081203F3402FA91078081205B2901CDBAE
:101A3000780C1205C17808790C120493901CD378A5
:101A40000C1205C17808790C120493E51024082EB5
:101A5000F8E50CF20EA910901CDF78081205C17889
:101A6000081203F3402FA91078081205B2901CDF6A
:101A7000780C1205C17808790C120493901CD37865
:101A80000C1205C17808790C120493E51024082E75
:101A9000F8E50CF20EA910901CE378081205C17845
:101AA000081203F3402FA91078081205B2901CE326
:101AB000780C1205C17808790C120493901CD37825
:101AC0000C1205C17808790C120493E51024082E35
:101AD000F8E50CF20EA910901CE778081205C17801
:101AE000081203F3402FA91078081205B2901CE7E2
:101AF000780C1205C17808790C120493901CD378E5
:101B00000C1205C17808790C120493E51024082EF4
:101B1000F8E50CF20EA910901CEB78081205C178BC
:101B2000081203F3402FA91078081205B2901CEB9D
:101B3000780C1205C17808790C120493901CD378A4
:101B40000C1205C17808790C120493E51024082EB4
:101B5000F8E50CF20EA910901CEF78081205C17878
:101B6000081203F3402FA91078081205B2901CEF59
:101B7000780C1205C17808790C120493901CD37864
:101B80000C1205C17808790C120493E51024082E74
:101B9000F8E50CF20E750B00021C6CA8097900E840
:101BA00075F09CA4C885F00875F000A42508F50818
:101BB00075F09CE9A42508F9E8242DF8E93408F922
:101BC000EC28F582ED39F583E493F4C0E0EC240BC6
:101BD000F582ED3400F583D0E0F0EC2401FCED3427
:101BE00000FDC3EC9AED9B40B2E5102404F8850A91
:101BF00008750900E22508FC08E23509FD74FF2C90
:101C0000FC74FF3DFD75080B75090078081207CBC1
:101C10008A088B0978081207CBE510240AF88F0888
:101C2000750900E22508FA08E23509FB74FF2AF578
:101C30000874FF3BF50978081207CBE510240CF86F
:101C40001207E2E510240CF8E2FA08E2FB1212296E
:101C5000E5102408F510850A08750900E51024042C
:101C6000F8E22508F208E23509F2050BE50BC39E00
:101C70005020EEC3950BFAE51024082A24FFF8E261
:101C8000F5097A9C7B00750A1A7F307C007D000282
:101C90001BE2E5102412F5107F0802071A74F712F0
:101CA00006E91211427E007F00801974FFC0E0EE49
:101CB00024E2F582EF3400F583D0E0F0EE2401FE5B
:101CC000EF3400FFC3EE9480EF941240DE7C287D59
:101CD000007A007B001218D27AE27B001217BA1247
:101CE0001D66121100901CCB78081205C1AA08AB22
:101CF00009AC0AAD0B120FBE121D6612182D7F041F
:101D000002071A53C6BFE59EA2E640FA53C6B8E5DD
:101D1000C622C008C009121D03740190624BF07402
:101D2000019061BDF075B63E43B430E5B443B440B4
:101D3000E5B4A2E750FAE5BAC4540FFA7B0085BBBC
:101D400008750900740478081206D4E5084AFAE513
:101D5000094BFBD009D0082212508012501E227568
:101D6000C90043C9082275C9A075C95022C008C05E
:101D700009E5B6C28D75B63F75B53F43B430E5B4DD
:101D800043B440E5B4A2E750FAE5BAC4540FFA7B75
:101D90000085BB08750900740478081206D4E508AC
:101DA0004AFAE5094BFBD009D0082274F31206E980
:101DB0009000D978081205C1901CF3780C1205C167
:101DC0007808790C1204939000DD78081205E590EC
:101DD00000DD78081205C1E5089000E1F09000D917
:101DE00078081205C1901CF3780C1205C1780879A7
:101DF0000C1204939000D9780C1205E59000E1E0F4
:101E0000F97F0802071A74F91206E97EFF7508FFC8
:101E100080347509008A828B83E079006508F8E9CF
:101E20006509F98A828B83A3AA82AB83E8242FF504
:101E300082E9341AF583E06EF508E8242FF582E98B
:101E4000341BF583E0FEECF8EDF974FF28FC74FF19
:101E500039FD740068700374006970B6EEF8E4C868
:101E6000F9750900E50848FAE50949FB7F02020710
:101E70001AE9C333906272F0906270E0D2E0F090A1
:101E80006270E0A2E740F82274F91206E9E5102436
:101E900007F8E2FE08E2FF8A088B09740A78081244
:101EA00006C5E5085401C0E0E9F508E508C333F5C7
:101EB00008D0E04508906272F08A088B09740278B5
:101EC000081206C5E508906271F0EDFBEB901C2F3F
:101ED000F0EC901C30F0EFFBEB541F901C33F0EE55
:101EE00054FC901C34F07B1CEBF5D575D42F75D1C8
:101EF0000175D601906270E0D2E1F0906270E0A2CC
:101F0000E740F87F0202071A74F71206E9E9FEE5D6
:101F1000102409F8E2F50A08E2F50B8E08750900AD
:101F2000740F5508F874005509F9E875F000A4C855
:101F3000AFF075F008A42FFF75F000E9A42FF9E8C1
:101F40002AF8E93BF9740028F8748039F9E5C7FFED
:101F5000EEC4540F5407C0E074F855C7FAD0E04AF5
:101F6000F5C7801C88828983E08C828D83F088820B
:101F70008983A3A882A9838C828D83A3AC82AD833D
:101F8000AA0AAB0B74FF2AF50A74FF3BF50B740029
:101F90006A700374006B70CC8FC77F0402071A75D8
:101FA000970075960F75950FD2AFD2ADC2C722C0FC
:101FB000E074F212073FC2C779041250FC7F01029D
:101FC0000788C0E0C0D0E8C0E0E9C0E0EAC0E0EBCC
:101FD000C0E0C082C08375C0009000D3E0F8A3E0E9
:101FE000F9740128FA740039FB9000D3EAF0A3EBEE
:101FF000F0C3E894D0E99403400A9000D37400F051
:10200000A37400F0901895E064007004A3E06400ED
:10201000600C901895E024FFF0A3E034FFF0D0832B
:10202000D082D0E0FBD0E0FAD0E0F9D0E0F8D0D018
:10203000D0E03274F31206E9E51024F4F510E5104F
:102040002408F8EAF208EBF208ECF208EDF2901C32
:10205000BF78081205C1A81074081205D0901CBFE3
:1020600078081205C1E5102404F874081205D09010
:102070001CBF780C1205C1859508E4F509F50AF531
:102080000BA910780812059F859608E4F509F50A52
:10209000F50B7408780812051CA910780812059F22
:1020A000859708E4F509F50AF50B74107808120510
:1020B0001CA910780812059FE5102408F9901CD778
:1020C00078081205C178081203F34023E5102408AC
:1020D000F978081205B2901CD7780C1205C178085F
:1020E000790C120493E5102404F874081205D0E565
:1020F000102408F978081205B2901CD7780C120544
:10210000C17808790C120493E5102404F9901CBFDF
:1021100078081205C178081203B9602CE510240470
:10212000F978081205B2740F780812051CE510241E
:1021300004F874081205D0E5102404F97808120593
:10214000B2A9107808120574901CBF780C1203CE47
:10215000601D740F780C12051C901CD778081205AE
:10216000C1780C7908120493A910780C120574A98F
:102170001078081205B274107808120503E508F506
:1021800097A91078081205B2E509F508E508F59653
:10219000A91078081205B2E508F595E510240CF5AC
:1021A000107F0802071A75F30075FD00758F007522
:1021B000F40075FE0075F6002243CB08D2BB43CB7A
:1021C000E0E5CB53CBFCE5CB43CB102274F31206F6
:1021D000E98A088B098C0A8D0B121D669000D57850
:1021E000081205619000D5C082C083901CF7780C5E
:1021F0001205C1D083D082780C1204034013901CC6
:10220000BF780C1205C19000D5780C1205E5122C90
:10221000939000D978081205611228F4121D6612F5
:1022200021A6AA08AB09AC0AAD0B12203379021221
:1022300050FC1228747F0802071A53F310E5F34389
:10224000FDEFE5FDE58F758F0053F7DF53F3EF5397
:10225000FDEF53F4FCE5F443FE03E5FE22EEC0E09F
:10226000E9FE12223A43FE04D283121D667AF47B01
:10227000011250CFC283121D667AF47B011250CF37
:10228000121D66EEF912186DD0E0FE2212223A43BA
:10229000FE04D283121D667AF47B011250CFC283F2
:1022A000121D667AF47B011250CF121D66121C9D1E
:1022B000227800790080197400C0E0E824E2F582F9
:1022C000E93400F583D0E0F0E82401F8E93400F9BE
:1022D000C3E894FFE9940F40DE22C008C0097A00E9
:1022E00080197400C0E08A08750900E50824EDF53E
:1022F00082E5093414F583D0E0F00AEAC3940A4079
:10230000E1D009D00822901C3778081205C174105A
:1023100078081205039014F8E508F0A3E509F075B4
:10232000080078081207CF7C077D209014F8E0FAA7
:10233000A3E0FB79131227E30510121F9F120F7DF4
:10234000121D5F12228C121D6612500A8075901C9D
:10235000FB78081205C1AA08AB09AC0AAD0B122123
:10236000CC9014FAE064077027121D66901C98E068
:10237000FAA3E0FB1248C174039014FAF0901CFB1E
:1023800078081205C1AA08AB09AC0AAD0B1221CC22
:102390009014FAE06408702B121D6674009014FB10
:1023A000F074009014FAF01222DA74009014ECF039
:1023B000901CFB78081205C1AA08AB09AC0AAD0B4A
:1023C0001221CC9014FAE06003022470901C37783C
:1023D000081205C1741078081205039014F8E50876
:1023E000F0A3E509F075080078081207CF9014EC07
:1023F000E0F87900E875F002A4C8AAF075F000A42E
:102400002AFA75F002E9A42AF9E82445F582E934AC
:102410001CF583E0FCA3E0FD9014F8E0FAA3E0FBD8
:102420009014ECE07900243BF582E9341CF583E05C
:10243000F91227E305109014ECE0F87900E875F044
:1024400002A4C8AAF075F000A42AFA75F002E9A463
:102450002AF9E8246DF582E9341CF583E0FAA3E05B
:10246000FB122CA212500A121D6674019014FAF08D
:102470009014FAE06401703D121D66122DA0E9C0AF
:10248000E09014ECE0790024EDF582E93414F58352
:10249000D0E0F09014ECE0790024EDF582E93414FA
:1024A000F583E06401700874019014FAF0800674FA
:1024B000029014FAF09014FAE064026003022647D6
:1024C000121D669014ECE02401F09014ECE0C0E0E2
:1024D000901C9AE0FAD0E0C39A500302262190148F
:1024E000FBE02401F09014FBE0C39405400C740061
:1024F0009014FBF0740A901C9AF074009014ECF0A5
:102500007A000226189014EDE0C394014034901C28
:102510003CE0901C95F0901C47E0F8A3E0F9901C7B
:1025200096E8F0A3E9F0901C6FE0F8A3E0F9901CA6
:1025300098E8F0A3E9F074019014F7F07403901494
:10254000FAF0EAC3940150030226178A08750900BD
:10255000E50824ECF582E5093414F583E0C0E08A4F
:1025600008750900E50824EDF582E5093414F583C2
:10257000E0FBD0E0C39B400302261775F002EA841B
:102580009014F7F075F0029014F7E0A49014F7F0AF
:102590009014F7E02401F09014F7E07900243BF563
:1025A00082E9341CF583E0901C95F09014F7E0F874
:1025B0007900E875F002A4C8ABF075F000A42BFB1D
:1025C00075F002E9A42BF9E82445F582E9341CF5FD
:1025D00083E0F8A3E0F9901C96E8F0A3E9F09014EA
:1025E000F7E0F87900E875F002A4C8ABF075F000E8
:1025F000A42BFB75F002E9A42BF9E8246DF582E920
:10260000341CF583E0F8A3E0F9901C98E8F0A3E906
:10261000F074039014FAF00AEAC3940A50030225F6
:10262000059014FAE0640370051222DA8006740043
:102630009014FAF0901CF378081205C1AA08AB09AF
:10264000AC0AAD0B1221CC9014FAE06403600302D3
:102650002751121D66901C3778081205C174107836
:10266000081205039014F8E508F0A3E509F0122814
:102670006EE9C39403500302271812286EE975F01F
:102680000284E5F0640160030227187508007808E9
:102690001207CF9014F7E0F87900E875F002A4C8AB
:1026A000AAF075F000A42AFA75F002E9A42AF9E864
:1026B0002443F582E9341CF583E0FCA3E0FD90148B
:1026C000F8E0FAA3E0FB9014F7E07900243AF582F1
:1026D000E9341CF583E0F91227E305101222B190CA
:1026E00014F7E0F87900E875F002A4C8AAF075F0D4
:1026F00000A42AFA75F002E9A42AF9E8246BF5820D
:10270000E9341CF583E0FAA3E0FB1248C112500A39
:1027100074049014FAF0803975080078081207CF15
:10272000901C96E0FCA3E0FD9014F8E0FAA3E0FB17
:10273000901C95E0F91227E305101222B1901C9825
:10274000E0FAA3E0FB1248C112500A74049014FA94
:10275000F09014FAE06404700B121D661240CFE989
:102760009014FAF09014FAE06405701C121D66745F
:10277000039014FAF0901CFB78081205C1AA08AB6C
:1027800009AC0AAD0B1221CC9014FAE06406600388
:10279000022361121D6674039014FAF01228548A01
:1027A000088B098C0A8D0B901CF3780C1205C178EC
:1027B0000C79081203E3500302234E1228548A08AE
:1027C0008B098C0A8D0B901CFF780C1205C1780CBC
:1027D00079081203E3400302234E1228541221CC3D
:1027E00002236174FA1206E98908EAFEEBFFE5109C
:1027F0002406F8E2FA901899ECF0A3EDF0E50890C1
:10280000189BF074016A7008740190189CF080069F
:10281000740090189CF0121D581221B912511BE936
:102820006401700712524679008024901897EEF0E8
:10283000A3EFF07A977B18124E3AE9640170071201
:102840005246790080097A017B001250CF79017FCE
:102850000102071A74F71206E99018827808120527
:10286000C1AA08AB09AC0AAD0B7F0402071A901885
:1028700076E0F922121DABE9FA901893E02AF09065
:102880001893E0C3943C4015901893E075F03C8495
:10289000E5F0901893F0901892E02401F0901892CF
:1028A000E0C39418400D7400901892F0901891E0D5
:1028B0002401F0901890E0790024A4F582E9341CFA
:1028C000F583E0C0E0901891E0FAD0E0C39A500D93
:1028D0007400901891F0901890E02401F0901890F6
:1028E000E0C3940D400D7400901890F090188FE0A4
:1028F0002401F02274F31206E9E51024F8F51075AE
:10290000F00C90188FE024EDA4901890FAE02AF5CE
:1029100008E4F509F50AF50B7418780812051C90FF
:102920001891E0F50CE4F50DF50EF50F7410780C28
:1029300012051C7808790C12053B901892E0F50CF2
:10294000E4F50DF50EF50F7408780C12051C7808E7
:10295000790C12053B901893E0F50CE4F50DF50E9B
:10296000F50F7808790C12053BA81074081205D0F1
:102970007E0080010EEEC394054003022C01EEF8A8
:102980007900E875F00DA4C8AAF075F000A42AFA41
:1029900075F00DE9A42AF9E824FFF582E93414F56D
:1029A00083E0C3941340CD75F00CC0F0EEF87900CD
:1029B000E875F00DA4C8AAF075F000A42AFA75F025
:1029C0000DE9A42AF9E824FFF582E93414F583E03F
:1029D00024EDD0F0A4C0E0EEF87900E875F00DA485
:1029E000C8AAF075F000A42AFA75F00DE9A42AF936
:1029F000E82400F582E93415F583D0E0FAE02AF501
:102A000008E4F509F50AF50B7418780812051CEEB0
:102A1000F87900E875F00DA4C8AAF075F000A42AB2
:102A2000FA75F00DE9A42AF9E82401F582E93415D4
:102A3000F583E0F50CE4F50DF50EF50F7410780C48
:102A400012051C7808790C12053BEEF87900E87540
:102A5000F00DA4C8AAF075F000A42AFA75F00DE9EB
:102A6000A42AF9E82402F582E93415F583E0F50C8F
:102A7000E4F50DF50EF50F7408780C12051C7808B6
:102A8000790C12053BEEF87900E875F00DA4C8AAA0
:102A9000F075F000A42AFA75F00DE9A42AF9E824EB
:102AA00003F582E93415F583E0F50CE4F50DF50E38
:102AB000F50F7808790C12053BE5102404F874082A
:102AC0001205D075F00CC0F0EEF87900E875F00D45
:102AD000A4C8AAF075F000A42AFA75F00DE9A42A9A
:102AE000F9E82404F582E93415F583E024EDD0F00B
:102AF000A4C0E0EEF87900E875F00DA4C8AAF0755E
:102B0000F000A42AFA75F00DE9A42AF9E82405F5E5
:102B100082E93415F583D0E0FAE02AF508E4F509F6
:102B2000F50AF50B7418780812051CEEF87900E820
:102B300075F00DA4C8AAF075F000A42AFA75F00D7E
:102B4000E9A42AF9E82406F582E93415F583E0F5CD
:102B50000CE4F50DF50EF50F7410780C12051C78C9
:102B600008790C12053BEEF87900E875F00DA4C861
:102B7000AAF075F000A42AFA75F00DE9A42AF9E884
:102B80002407F582E93415F583E0F50CE4F50DF53D
:102B90000EF50F7408780C12051C7808790C1205D4
:102BA0003BEEF87900E875F00DA4C8AAF075F000C6
:102BB000A42AFA75F00DE9A42AF9E82408F582E9B7
:102BC0003415F583E0F50CE4F50DF50EF50F7808F6
:102BD000790C12053BE510FAE5102404F9780C1283
:102BE00005B2EAF9780C1203F35003022974A91014
:102BF000780C1205B2780C79081203E3500302290D
:102C000074EEC39405501790185EE06E6010EE905D
:102C1000185EF012501490185EE0F912225DEEC3B7
:102C20009405406490185EE0FA90188CE06A605851
:102C30007D00803B7400C0E090185EE0FA7B00EA03
:102C400075F00DA4CAACF075F000A42CFC75F00D65
:102C5000EBA42CFB8D08750900E50824FFF8E509B5
:102C60003414F9EA28F582EB39F583D0E0F00DED64
:102C7000C3940A40BF90188CE090185EF012501474
:102C800090185EE0F912225DE5102408F5107F0827
:102C900002071A125014121D6690185EE0F91222F3
:102CA0005D2274F51206E98A0C8B0D746E90186023
:102CB000F07416901861F0901C3778081205C1E581
:102CC00008901862F0901C3778081205C1E509F5E4
:102CD00008E508901863F0901C3778081205C17455
:102CE000107808120503E508901864F0901C3778F6
:102CF000081205C174187808120503E508901865D4
:102D0000F0901888E0901866F0901889E0901867A5
:102D1000F090188AE0901868F090188BE09018698D
:102D2000F0740090186AF0740090186BF0740090C2
:102D3000186CF0740090186DF0740090186EF074B8
:102D40000090186FF07400901870F0740090187173
:102D5000F07400901872F07400901873F07C147D79
:102D6000007A607B18121E068A088B09AE08EE9066
:102D70001874F0E509901875F079F5125165125044
:102D8000147A017B001250CF79167C607D18AA0C52
:102D9000AB0D124EC712502112501E7F0602071AA9
:102DA00074F71206E9E51024FCF5109018957405E7
:102DB000F0A37400F0124F57E9700E901895E0647C
:102DC000007004A3E0640070EC901895E06400705B
:102DD00004A3E0640070057900022E92901895E03B
:102DE00064007004A3E064007003022E90901895B4
:102DF0007400F0A37400F0E5102402F5088593092F
:102E000078081207CBE5102402F508AC08AD9379D9
:102E1000507A9C7B14124F5D05100510E9C3940194
:102E2000406E90149DE0F50885080A750B0074FE4D
:102E3000250AFC74FF350BFD7A9C7B14121E068A52
:102E40000A8B0BAA0AAC0BEAFA85080A750B00E597
:102E50000A249BF582E50B3414F583E06C70317520
:102E60000900E508249AF582E5093414F583E06A3F
:102E7000701E90149CE0646E701275F00290149EA7
:102E8000E0A4901C9AF0A810E2F980067901800273
:102E9000790005100510051005107F0402071A744B
:102EA000F31206E9E51024F8F510E9C0E0E5102476
:102EB00001F8D0E0F27400C0E0E5102404F8D0E09E
:102EC000F2121D66E5102401F8E2F87900E875F0C9
:102ED0000DA4C8AAF075F000A42AFA75F00DE9A4B3
:102EE0002AF9E824FEF582E93414F583E0C0E0E530
:102EF000102404F8D0E0F2E5102401F8E2F879009B
:102F0000E875F00DA4C8AAF075F000A42AFA75F0CF
:102F10000DE9A42AF9E824FCF582E93414F583E0EC
:102F2000602F75088075091278081207CB7CE27D46
:102F3000007A007B00E5102403F8E27900249EF576
:102F400082E9341CF583E0F9121F08051005108092
:102F500046E5102402F87400F2087400F28025742B
:102F6000FFC0E0E5102402F8E224E2F58208E23432
:102F700000F583D0E0F0E5102402F8E22401F20825
:102F8000E23400F2E5102402F8E2FA08E2FBC3EAB8
:102F90009480EB941240C8121D667B00802BEBF8E6
:102FA0007900E875F002A4C8AAF075F000A42AFA26
:102FB00075F002E9A42AF9E8249DF582E93418F5B0
:102FC000837400F0A37400F00BEBC3943240CF1273
:102FD0001D66E5102402F87400F2087400F2800EF9
:102FE000E5102402F8E22401F208E23400F2E510D0
:102FF0002402F8E2FA08E2FBC3EA9428EB940140C9
:1030000003023333E5102405F87400F2087400F26B
:10301000023312121D66A810E2F87900E875F0106C
:10302000A4C8AAF075F000A42AFA75F010E9A42A41
:10303000F9E82443F582E93415F583E0FA7B00A82A
:1030400010E2F87900E875F010A4C8ACF075F00053
:10305000A42CFC75F010E9A42CF9E82444F582E9CD
:103060003415F583E0F8E4C8F9E82AF50EE93BF5F4
:103070000FA810E2F87900E875F010A4C8AAF0755E
:10308000F000A42AFA75F010E9A42AF9E82447F51B
:1030900082E93415F583E0FA7B00A810E2F87900A4
:1030A000E875F010A4C8ACF075F000A42CFC75F025
:1030B00010E9A42CF9E82448F582E93415F583E0F9
:1030C000F8E4C8F9E82AF50AE93BF50BA810E2F89C
:1030D0007900E875F010A4C8AAF075F000A42AFAE7
:1030E00075F010E9A42AF9E82445F582E93415F5CC
:1030F00083E0FA7B00A810E2F87900E875F010A4EC
:10310000C8ACF075F000A42CFC75F010E9A42CF903
:10311000E82446F582E93415F583E0F8E4C8F9E8D7
:103120002AF508E93BF509A810E2F87900E875F0FE
:1031300010A4C8AAF075F000A42AFA75F010E9A44A
:103140002AF9E82449F582E93415F583E0FA7B0091
:10315000A810E2F87900E875F010A4C8ACF075F09A
:1031600000A42CFC75F010E9A42CF9E8244AF5829F
:10317000E93415F583E0F8E4C8F9E82AFEE93BFFF5
:1031800085080C85090D7403780C1206C5850C089A
:10319000850D098E0C8F0D7403780C1206C5E51091
:1031A0002402F8E2FA08E2FBC3EA950EEB950F5011
:1031B000030232E9E5102402F8E2FA08E2FBC3E573
:1031C0000A9AE50B9B50030232E9E5102405F8E268
:1031D000FA08E2FBC3EA9508EB950950030232E9CD
:1031E000E5102405F8E2FA08E2FBC3E50C9AE50DC8
:1031F0009B50030232E9750801750900780812072F
:10320000CBE5102409F508AC08AD93E5102402F8CD
:10321000E2F87900E875F010A4C8AAF075F000A4EF
:103220002AFA75F010E9A42AF9E8244BF582E9346A
:1032300015F583C082C083E5102402F8E2F8790016
:10324000E875F002A4C8AAF075F000A42AFA75F097
:1032500002E9A42AF9E8249DF582E93418F583E00F
:10326000F8A3E0F9D083D082E028FAA3E039FB90FC
:103270001C9BE0F9121F0805100510E5102407F843
:10328000E2C0E0E5102402F8E2FA08E2FBEA75F099
:1032900010A4CAACF075F000A42CFC75F010EBA4DF
:1032A0002CFBE5102405F8E22AFA08E23BFBEA24AD
:1032B000E2F582EB3400F583D0E0F0A810E2F87973
:1032C00000E875F002A4C8AAF075F000A42AFA7507
:1032D000F002E9A42AF9E8249DF582E93418F5837F
:1032E000E02401F0A3E03400F0A810E22401F2A8E9
:1032F00010E2C0E0E5102404F8E2FAD0E0C39A50EE
:1033000003023013E5102405F8E22401F208E23448
:1033100000F2E5102405F8E2FA08E2FBC3EA941093
:10332000EB94004003022FE07400C0E0A810D0E04E
:10333000F280BC121D66E5102401F8E27900249E9B
:10334000F582E9341CF583E0F9121E71E5102401C1
:10335000F8E27900249EF582E9341CF583E024012B
:10336000F9121E71E5102401F8E27900249EF5821D
:10337000E9341CF583E02402F9121E71750880758A
:10338000091278081207CB7CE27D007A007B00E509
:10339000102403F8E27900249EF582E9341CF583B9
:1033A000E0F9121E8805100510121D66E5102408AC
:1033B000F5107F0802071A74F51206E915107E0051
:1033C0007F00750C00750D007508017509007808FF
:1033D0001207CBE5102402F508AC08AD937A007B08
:1033E00000901C9BE0F9121F0805100510121D66C5
:1033F00075080080020508E508C39405501D750A8C
:1034000001750B00E508780A1206D4A810AA0AE292
:103410005AC3940140DFA810E508F27508008060E7
:10342000121D66750A01750B00780A1207CBE510AC
:103430002402F8E2F87900E875F00DA4C8AAF07546
:10344000F000A42AFA75F00DE9A42AF985080A7596
:103450000B00E50A24FDFAE50B3414FBE82AFCE92D
:103460003BFD85080A750B007407250AFA740035C0
:103470000BFB901C9BE0F9121F08051005100508B6
:10348000E508C3940C4099121D6675080175090082
:1034900078081207CBE5102402F8E2F87900E87505
:1034A000F00DA4C8AAF075F000A42AFA75F00DE991
:1034B000A42AF9E824FCFCE93414FD7A017B00908D
:1034C0001C9BE0F9121F0805100510750900023653
:1034D00007121D66750A01750B00780A1207CBA842
:1034E000097900E875F010A4C8AAF075F000A42AC4
:1034F000FA75F010E9A42AF985080A750B00E50AA7
:10350000243FFAE50B3415FBE82AFCE93BFD85086E
:103510000A750B00E50A250CF8E50B350DF9741654
:1035200028FA740039FB901C9BE0F9121F08051063
:1035300005100508E508C3940C409690154B7422BD
:10354000F0A37400F0E509C394014052A809790082
:10355000E875F010A4C8AAF075F000A42AFA75F076
:1035600010E9A42AF9E8243BF582E93415F583E053
:103570002EFAA3E03FFBA8097900E875F010A4C873
:10358000ACF075F000A42CFC75F010E9A42CF9E85F
:10359000244BF582E93415F583EAF0A3EBF0A80992
:1035A0007900E875F010A4C8AAF075F000A42AFA12
:1035B00075F010E9A42AF9E8243FF582E93415F5FD
:1035C00083E0FA7B00A8097900E875F010A4C8AC84
:1035D000F075F000A42CFC75F010E9A42CF9E82497
:1035E00040F582E93415F583E0F8E4C8F9E82AF8F3
:1035F000E93BF9740428FE740039FFE50C2EF50C44
:10360000E50D3FF50D0509A810E2F87900E875F021
:103610000DA4C8AAF075F000A42AFA75F00DE9A46B
:103620002AF9E824FEF582E93414F583E0FAE50985
:10363000C39A5009121D66750800023534A810E2BD
:10364000F9122E9F05107F0602071A74F31206E97D
:10365000E51024F4F510E9C0E0A810D0E0F2E51080
:103660002409F87400F2087400F27400C0E0E51058
:103670002402F8D0E0F2750C01750D00780C1207E9
:10368000CBE510240DF50CAC0CAD937A007B0090CB
:103690001C9BE0F9121F0805100510750C01750D33
:1036A00000780C1207CBE510240AF50CAC0CAD9396
:1036B0007A077B00901C9BE0F9121F08051005108B
:1036C000121D66A810E2F87900E875F010A4C8AAE7
:1036D000F075F000A42AFA75F010E9A42AF9E8249C
:1036E0003DF582E93415F583E064CC6003023B1FAD
:1036F000A810E2F87900E875F010A4C8AAF075F0F7
:1037000000A42AFA75F010E9A42AF9E82443F58206
:10371000E93415F583E0FA7B00A810E2F87900E8B7
:1037200075F010A4C8ACF075F000A42CFC75F01076
:10373000E9A42CF9E82444F582E93415F583E0F88E
:10374000E4C8F9E82AF50EE93BF50FA810E2F8798C
:1037500000E875F010A4C8AAF075F000A42AFA7564
:10376000F010E9A42AF9E82447F582E93415F58335
:10377000E0FA7B00A810E2F87900E875F010A4C820
:10378000ACF075F000A42CFC75F010E9A42CF9E85D
:103790002448F582E93415F583E0F8E4C8F9E82A0D
:1037A000F50AE93BF50BA810E2F87900E875F0108E
:1037B000A4C8AAF075F000A42AFA75F010E9A42AAA
:1037C000F9E82445F582E93415F583E0FA7B00A891
:1037D00010E2F87900E875F010A4C8ACF075F000BC
:1037E000A42CFC75F010E9A42CF9E82446F582E934
:1037F0003415F583E0F8E4C8F9E82AF508E93BF563
:1038000009A810E2F87900E875F010A4C8AAF075CC
:10381000F000A42AFA75F010E9A42AF9E82449F581
:1038200082E93415F583E0FA7B00A810E2F879000C
:10383000E875F010A4C8ACF075F000A42CFC75F08D
:1038400010E9A42CF9E8244AF582E93415F583E05F
:10385000F8E4C8F9E82AFEE93BFF85080C85090D64
:103860007403780C1206C5850C08850D098E0C8F23
:103870000D7403780C1206C5AE0CAF0D7400C0E0D9
:10388000E5102402F8D0E0F202390D121D66E510B1
:103890002401F8E27900249EF582E9341CF583E0E6
:1038A000F9121E71E5102401F8E27900249EF582D8
:1038B000E9341CF583E02401F9121E71E51024019E
:1038C000F8E27900249EF582E9341CF583E02402B5
:1038D000F9121E71750C80750D12780C1207CB7CD5
:1038E000E27D007A007B00E5102403F8E2790024F1
:1038F0009EF582E9341CF583E0F9121E8805100557
:1039000010121D66E5102402F8E22401F2E51024ED
:1039100002F8E2C394054003023F25121D66750CB0
:1039200001750D00E5102402F8E2780C1206D4E5CA
:1039300010240BF8AA0CE25AC3940140C7E51024E6
:1039400002F8E2C0E0E5102401F8D0E0F2750C8046
:10395000750D12780C1207CB7CE27D007A007B009B
:10396000E5102403F8E27900249EF582E9341CF581
:1039700083E0F9121F0805100510E5102408F8E28D
:10398000C0E0E5102401F8E2F87900E875F00DA434
:10399000C8AAF075F000A42AFA75F00DE9A42AF976
:1039A000E824FDF582E93414F583D0E0F0E5102435
:1039B00009F87400F2087400F2E5102405F87400A8
:1039C000F2087400F2023AF8E5102405F8E2FA0869
:1039D000E2FBC3EA950EEB950F5003023AC6E510E1
:1039E0002405F8E2FA08E2FBC3E50A9AE50B9B50CE
:1039F00003023AC6E5102403F8E2FA08E2FBC3EA40
:103A00009508EB95095003023AC6E5102403F8E245
:103A1000FA08E2FBC3EE9AEF9B5003023AC6750C1C
:103A200001750D00780C1207CBE5102409F50CACDC
:103A30000CAD93E5102402F8E2F87900E875F01077
:103A4000A4C8AAF075F000A42AFA75F010E9A42A17
:103A5000F9E8244BF582E93415F583E510240BF8D9
:103A6000E0FAE22AFAA308E0FBE23BFB901C9BE0B1
:103A7000F9121F0805100510E5102407F8E2C0E050
:103A8000E5102405F8E2FA08E2FBEA75F010A4CA92
:103A9000ACF075F000A42CFC75F010EBA42CFBE549
:103AA000102403F8E22AFA08E23BFBEA24E2F5825A
:103AB000EB3400F583D0E0F0E5102409F8E22401AE
:103AC000F208E23400F2E5102403F8E22401F208DF
:103AD000E23400F2E5102403F8E2FA08E2FBC3EA5C
:103AE0009410EB940050030239C8E5102405F8E265
:103AF0002401F208E23400F2E5102405F8E2FA08A5
:103B0000E2FBC3EA9428EB9401400302388B121DB8
:103B100066E5102403F87400F2087400F280B5A87A
:103B200010E2F87900E875F010A4C8AAF075F0006A
:103B3000A42AFA75F010E9A42AF9E8243DF582E9EF
:103B40003415F583E0540EC0E0E5102401F8D0E010
:103B5000F2E5102408F8E2C0E0E5102401F8E2F8EC
:103B60007900E875F00DA4C8AAF075F000A42AFA4F
:103B700075F00DE9A42AF9E824FDF582E93414F57D
:103B800083D0E0F075088075091278081207CB7CA5
:103B9000E27D007A007B00E5102403F8E27900243E
:103BA0009EF582E9341CF583E0F9121F0805100523
:103BB00010A810E2F87900E875F010A4C8AAF07512
:103BC000F000A42AFA75F010E9A42AF9E82443F5D4
:103BD00082E93415F583E0FA7B00A810E2F8790059
:103BE000E875F010A4C8ACF075F000A42CFC75F0DA
:103BF00010E9A42CF9E82444F582E93415F583E0B2
:103C0000F8E4C8F9E82AF50EE93BF50FA810E2F848
:103C10007900E875F010A4C8AAF075F000A42AFA9B
:103C200075F010E9A42AF9E82447F582E93415F57E
:103C300083E0FA7B00A810E2F87900E875F010A4A0
:103C4000C8ACF075F000A42CFC75F010E9A42CF9B8
:103C5000E82448F582E93415F583E0F8E4C8F9E88A
:103C60002AF50AE93BF50BA810E2F87900E875F0AF
:103C700010A4C8AAF075F000A42AFA75F010E9A4FF
:103C80002AF9E82445F582E93415F583E0FA7B004A
:103C9000A810E2F87900E875F010A4C8ACF075F04F
:103CA00000A42CFC75F010E9A42CF9E82446F58258
:103CB000E93415F583E0F8E4C8F9E82AF508E93BAA
:103CC000F509A810E2F87900E875F010A4C8AAF088
:103CD00075F000A42AFA75F010E9A42AF9E824493D
:103CE000F582E93415F583E0FA7B00A810E2F87953
:103CF00000E875F010A4C8ACF075F000A42CFC75B9
:103D0000F010E9A42CF9E8244AF582E93415F5838A
:103D1000E0F8E4C8F9E82AFEE93BFF85080C8509CC
:103D20000D7403780C1206C5850C08850D098E0CE0
:103D30008F0D7403780C1206C5AE0CAF0D121D6604
:103D4000E5102409F87400F2087400F2E510240567
:103D5000F87400F2087400F2023E8BE5102405F8B6
:103D6000E2FA08E2FBC3EA950EEB950F5003023E20
:103D700059E5102405F8E2FA08E2FBC3E50A9AE5E2
:103D80000B9B5003023E59E5102403F8E2FA08E2C7
:103D9000FBC3EA9508EB95095003023E59E5102450
:103DA00003F8E2FA08E2FBC3EE9AEF9B5003023EEF
:103DB00059750C01750D00780C1207CBE51024091C
:103DC000F50CAC0CAD93E5102402F8E2F87900E8AC
:103DD00075F010A4C8AAF075F000A42AFA75F010C6
:103DE000E9A42AF9E8244BF582E93415F583E510B6
:103DF000240BF8E0FAE22AFAA308E0FBE23BFB908E
:103E00001C9BE0F9121F0805100510E5102407F8A7
:103E1000E2C0E0E5102405F8E2FA08E2FBEA75F0FA
:103E200010A4CAACF075F000A42CFC75F010EBA443
:103E30002CFBE5102403F8E22AFA08E23BFBEA2413
:103E4000E2F582EB3400F583D0E0F0E5102409F8C8
:103E5000E22401F208E23400F2E5102403F8E2243F
:103E600001F208E23400F2E5102403F8E2FA08E275
:103E7000FBC3EA9410EB94005003023D5BE5102471
:103E800005F8E22401F208E23400F2E5102405F816
:103E9000E2FA08E2FBC3EA9428EB9401500EE51025
:103EA0002403F87400F2087400F280BB121D66E56A
:103EB000102401F8E27900249EF582E9341CF58390
:103EC000E0F9121E71E5102401F8E27900249EF554
:103ED00082E9341CF583E02401F9121E71E51024F7
:103EE00001F8E27900249EF582E9341CF583E02490
:103EF00002F9121E7175088075091278081207CB35
:103F00007CE27D007A007B00E5102403F8E2790072
:103F1000249EF582E9341CF583E0F9121E88051011
:103F20000510121D66E510240CF5107F0802071A13
:103F300074F51206E915107E007F00750C00750DF2
:103F40000075080175090078081207CBE5102402F6
:103F5000F508AC08AD937A087B00901C9BE0F91241
:103F60001F080510051075080002409F750A0175AD
:103F70000B00780A1207CB85090A750B00A808798F
:103F800000E875F010A4C8AAF075F000A42AFA752C
:103F9000F010E9A42AF9E8243DF8E93415F9E50A16
:103FA00028FCE50B39FD85090A750B00E50A250C8F
:103FB000F8E50B350DF9741428FA740039FB901CE0
:103FC0009BE0F9121F08051005100509E509C394C7
:103FD0000E409990154B7422F0A37400F0E508C3CD
:103FE00094014052A8087900E875F010A4C8AAF01E
:103FF00075F000A42AFA75F010E9A42AF9E8243B28
:10400000F582E93415F583E02EFAA3E03FFBA8081A
:104010007900E875F010A4C8ACF075F000A42CFC91
:1040200075F010E9A42CF9E8244BF582E93415F574
:1040300083EAF0A3EBF0A8087900E875F010A4C8B3
:10404000AAF075F000A42AFA75F010E9A42AF9E89C
:10405000243FF582E93415F583E0FA7B00A808795E
:1040600000E875F010A4C8ACF075F000A42CFC7545
:10407000F010E9A42CF9E82440F582E93415F58321
:10408000E0F8E4C8F9E82AF8E93BF9740428FE747A
:104090000039FFE50C2EF50CE50D3FF50D0508A8E0
:1040A00010E2FAE508C39A5006750900023FCC7584
:1040B0000800800A121D66A90812364B0508A810D0
:1040C000E2FAE508C39A40EC05107F0602071A746D
:1040D000F31206E9E51024FBF5107400C0E0A81007
:1040E000D0E0F29018957407F0A37400F0901901D5
:1040F000E0600A9018957490F0A37401F0121D66A8
:10410000124F57E9700E901895E064007004A3E018
:10411000640070EC121D66901876E02401F0A3E0B4
:104120003400F0901876C3E09415A3E09400400F9B
:104130009018767400F0A37400F07908024203909E
:104140001895E064007004A3E06400702D74009082
:104150001901F0740090149CF090188EE02401F086
:1041600090188EE0C39402400C7414901CA3F07459
:104170000090188EF07905024203901895E06400D3
:104180007004A3E0640060799018957400F0A37443
:1041900000F0E5102403F50885930978081207CB91
:1041A000E5102403F508AC08AD9379507A9C7B1494
:1041B000124F5D05100510E9C39401404490149C12
:1041C000E06468704D121D667400901905F07C0360
:1041D0007D007A9C7B14121E068A088B09AA08AC03
:1041E00009EAFA9014A0E06C701790149FE06A70CE
:1041F000107401901901F09018767400F0A3740007
:10420000F07904051005100510051005107F08024F
:10421000071A90149CE06457600302459974149047
:104220001CA3F0121D667E477F0074FE2EFC74FFF7
:104230003FFD7A9C7B14121E068A088B09AA08ACE3
:1042400009EAFA9014E2E06C70B79014E1E06A7049
:10425000B07401901901F09018767400F0A3740006
:10426000F090149DE0901904F090149FE0901903D1
:10427000F0901904E070759014A1E090185DF09032
:1042800014A7E0FA90188DE06A60617D00803F74A9
:1042900000C0E0EDFA7B00EA75F00DA4CAACF07541
:1042A000F000A42CFC75F00DEBA42CFB8E08750916
:1042B00000E50824FFF8E5093414F9EA28F582EB53
:1042C00039F583D0E0F00EEEC3940A40C20DEDC381
:1042D000940550047E0080EF9014A7E090188DF0B4
:1042E000740090188CF0740090185EF0901904E03F
:1042F000FA901905E06A6029901904E0FA7B0090B1
:104300001905E0F87900740128F8740039F9E86AB1
:104310007002E96B600B7400901905F07905024298
:104320000390149DE0901905F0901904E070367A1E
:1043300000EAC3944040030243BF8A08750900E5C0
:104340000824A1F582E5093414F583E0C0E08A0869
:10435000750900E50824E2F582E5093400F583D00B
:10436000E0F00A80CC7A0080508A08750900E508E0
:1043700024A1F582E5093414F583E0C0E090190426
:10438000E075F04084A8F07900E875F040A4C8AB6F
:10439000F075F000A42BFB75F040E9A42BF98A0816
:1043A000750900E50828F8E50939F9E824E2F582FD
:1043B000E93400F583D0E0F00AEAC3944040AA90C3
:1043C0001904E0C39401500302445E901904E0F81C
:1043D0007900740128F8740039F97A407B001206DC
:1043E000548A088B097400650870047400650970AC
:1043F0006D12501475F040901904E0847900249BEC
:10440000F582E9341CF583E0F9121E7175F04090D5
:104410001904E0847900249BF582E9341CF583E0DB
:104420002401F9121E71121D6675080075091078B5
:10443000081207CB7CE27D007A007B0075F040908B
:104440001904E0847900249BF582E9341CF583E0AB
:10445000F9121E8805100510121D6612500A9019D7
:1044600004E0FA7B00901903E0F8790074FF28F863
:1044700074FF39F9E86A7002E96B60030242019047
:104480001903E075F04084E5F0C39401406A1250CE
:104490001475F040901904E0847900249BF582E9BA
:1044A000341CF583E0F9121E7175F040901904E098
:1044B000847900249BF582E9341CF583E02401F91A
:1044C000121E71121D667508007509107808120712
:1044D000CB7CE27D007A007B0075F040901904E00F
:1044E000847900249BF582E9341CF583E0F9121EDF
:1044F0008805100510121D667508407509007808BA
:104500001207CB7CE27D007A007B00901C9BE0F9D7
:10451000121F08051005109000F6E064AA600579E6
:104520000402420375080175090078081207CBE5FB
:10453000102402F508AC08AD937A017B00901C9B17
:10454000E0F9121F0805100510A810E2C3940250EC
:10455000371233B775080175090090185EE07808C6
:104560001206D490185DAA08E05AC39401400E12B6
:104570005014121D6690185EE0F912225D740090CE
:104580001905F07907024203A810E26403700512CE
:104590003F3080C0790402420390149CE0646D6057
:1045A0000302476B121D667400901901F07E1A7F9A
:1045B000007400901905F074FE2EFC74FF3FFD7A24
:1045C0009C7B14121E068A088B09AA08AC09EAFA19
:1045D000EE249BF582EF3414F583E06C6003024215
:1045E00001EE249AF582EF3414F583E06A60030249
:1045F0004201901CA3E0C394145007901CA3E02434
:1046000001F09014B6E070067400901CA3F09018AE
:10461000767400F0A37400F0E5102401F8E290181D
:104620005FF09014A3E0F508E4F509F50AF50B90A6
:1046300014A4E0F50CE4F50DF50EF50F7408780CF4
:1046400012051C7808790C12053B9014A5E0F50CB6
:10465000E4F50DF50EF50F7410780C12051C7808B2
:10466000790C12053B90187E78081205E59014A08D
:10467000E0F508E4F509F50AF50B9014A1E0F50C56
:10468000E4F50DF50EF50F7408780C12051C78088A
:10469000790C12053B9014A2E0F50CE4F50DF50E33
:1046A000F50F7410780C12051C7808790C12053B74
:1046B00090187A78081205E590149FE0F8E4C8F99C
:1046C00090149EE07B0028F8EB39F9901878E8F018
:1046D000A3E9F09014A6E0FA7B009014A7E0F8E4B8
:1046E000C8F9E82AF8E93BF9901886E8F0A3E9F060
:1046F00090187E78081205C190187A7808120587FC
:1047000090188278081205E5901878E0F508A3E083
:10471000F509E4F50AF50B901886E0F50CA3E0F531
:104720000DE4F50EF50F7808790C12041390188239
:1047300078081205619014AFE0C3941340289014D8
:10474000AFE090188FF09014B0E0901890F09014B3
:10475000B1E0901891F09014B2E0901892F090149B
:10476000B3E0901893F0790602420390149CE06441
:104770006B60030248317414901CA3F0121D667420
:1047800000901901F07400901905F07E107F0074FC
:10479000FE2EFC74FF3FFD7A9C7B14121E068A08D5
:1047A0008B09AA08AC09EAFAEE249BF582EF3414CF
:1047B000F583E06C6003024201EE249AF582EF3447
:1047C00014F583E06A600302420190149EE024FF26
:1047D00090185EF07D00803B7400C0E090185EE0B1
:1047E000FA7B00EA75F00DA4CAACF075F000A42CB9
:1047F000FC75F00DEBA42CFB8D08750900E5082471
:10480000FFF8E5093414F9EA28F582EB39F583D08D
:10481000E0F00DEDC3940A40BF12501490185EE012
:1048200090188CF090185EE0F912225D7907024230
:104830000390149CE0646C60030248BC7414901CE8
:10484000A3F0121D667400901901F0740090190510
:10485000F07E107F0074FE2EFC74FF3FFD7A9C7B7F
:1048600014121E068A088B09AA08AC09EAFAEE247B
:104870009BF582EF3414F583E06C703BEE249AF5DF
:1048800082EF3414F583E06A702D90149EE0C0E04E
:10489000901902E079002488F582E93418F583D074
:1048A000E0F0901902E02401F0901902E064047035
:1048B000067400901902F07907024203790402425B
:1048C0000374F51206E98A0C8B0D746D90146AF06E
:1048D000742E90146BF0901C3778081205C1E5080F
:1048E00090146CF0901C3778081205C1E509F508A2
:1048F000E50890146DF0901C3778081205C174100B
:104900007808120503E50890146EF0901C377808BB
:104910001205C174187808120503E50890146FF0A9
:1049200090185EE0C394054006740090185EF09005
:10493000185EE02401901470F09014FDE090147162
:10494000F090150AE0901472F0901517E09014732F
:10495000F0901524E0901474F0901531E0901475E7
:10496000F0901894E0901476F090185FE09014772F
:10497000F0121D6D8A088B09AC08EC901478F0E5F4
:1049800009901479F0121D128A088B09AA08EA907E
:10499000147AF0E50990147BF0901CB1E090147C3F
:1049A000F0740090147DF0740090147EF074009008
:1049B000147FF07402901480F0901888E0901481B5
:1049C000F0901889E0901482F090188AE090148397
:1049D000F090188BE0901484F07400901485F0909F
:1049E000185EE0F87900E875F00DA4C8AAF075F03B
:1049F00000A42AFA75F00DE9A42AF9E824FFF5824B
:104A0000E93414F583E0901486F090185EE0F879AC
:104A100000E875F00DA4C8AAF075F000A42AFA7594
:104A2000F00DE9A42AF9E82400F582E93415F583AC
:104A3000E0901487F090185EE0F87900E875F00DCA
:104A4000A4C8AAF075F000A42AFA75F00DE9A42A0A
:104A5000F9E82401F582E93415F583E0901488F033
:104A600090185EE0F87900E875F00DA4C8AAF0751A
:104A7000F000A42AFA75F00DE9A42AF9E82402F559
:104A800082E93415F583E0901489F090185EE0F81F
:104A90007900E875F00DA4C8AAF075F000A42AFA10
:104AA00075F00DE9A42AF9E82403F582E93415F537
:104AB00083E090148AF090185EE0F87900E875F0D1
:104AC0000DA4C8AAF075F000A42AFA75F00DE9A4A7
:104AD0002AF9E82404F582E93415F583E090148B73
:104AE000F090185EE0F87900E875F00DA4C8AAF01F
:104AF00075F000A42AFA75F00DE9A42AF9E8240556
:104B0000F582E93415F583E090148CF090185EE09E
:104B1000F87900E875F00DA4C8AAF075F000A42A91
:104B2000FA75F00DE9A42AF9E82406F582E93415AE
:104B3000F583E090148DF090185EE0F87900E87548
:104B4000F00DA4C8AAF075F000A42AFA75F00DE9DA
:104B5000A42AF9E82407F582E93415F583E09014D6
:104B60008EF090185EE0F87900E875F00DA4C8AA00
:104B7000F075F000A42AFA75F00DE9A42AF9E824EA
:104B800008F582E93415F583E090148FF0740090F5
:104B90001490F07400901491F07400901492F074DA
:104BA00000901493F07400901494F0740090149595
:104BB000F07C2C7D007A6A7B14121E068A088B0911
:104BC000AE08E509901497F0EE901496F0901CA3AF
:104BD000E0901498F079F51251657A017B0012503B
:104BE000CF1250147A017B001250CF792F7C6A7D4E
:104BF00014AA0CAB0D124EC712502112501E79058B
:104C00007F0602071A74FA1206E9E9FEEAF8EBF9E0
:104C1000E8FAE9FB740B2E8A828B83F090190DE081
:104C2000F8A3E0F5838882A3A3A3A3A3E06006789A
:104C3000617988800478417988E88A828B83A3F03F
:104C4000E98A828B83A3A3F0901906E08A828B8382
:104C5000A3A3A3F090190DE0F8A3E0F5838882A345
:104C6000A3E0F8A3E0F98A828B83A3A3A3A3E8F0CF
:104C7000A3E9F08A828B83A3A3A3A3A3A3ECF0A34D
:104C8000EDF090190DE0F8A3E0F5838882E0F8A339
:104C9000E0F98A828B83A3A3A3A3A3A3A3A3E8F031
:104CA000A3E9F0790A7F0102071A74F51206E9EC0C
:104CB000FEEDFF8908A908EAFCEBFD7A0F7B1912CB
:104CC0004C05E9FB7A0080348A0A750B00EE250A50
:104CD000F582EF350BF583E0C0E08B0A750B008A97
:104CE0000C750D00E50C250AF8E50D350BF9E824E7
:104CF0000FF582E93419F583D0E0F00AEAC395088C
:104D000040C6E5082BF97F0602071A74FA1206E975
:104D10007E827F191251CF12501E7901EEFAEFFBFD
:104D20001251988E828F83E0C2E7F08E828F83E0EB
:104D3000640570538E828F83E0F97A837B19125158
:104D4000988E828F83A3E0A2E55004D2F08002C245
:104D5000F0A2F0E492E0901CBAF07886791988828B
:104D60008983A3E0A2E74003024E2F8E828F83A3A4
:104D7000A3A3E0FA901906E06A6003024E2F7401C3
:104D8000901907F0024E2F8E828F83E024F5901C3D
:104D9000B7F08E828F83E0F97A837B191251988E57
:104DA000828F83A3E0A2E55004D2F08002C2F0A279
:104DB000F0E492E0901CBAF08E828F83A3A3A3A3A9
:104DC000A3A3A3A3E0F8A3E0F9901CB3E8F0A3E940
:104DD000F0901CB8748CF0A37419F0901CB7E0F834
:104DE0003395E0F9901CB8E028F8A3E039F98882FF
:104DF0008983E0901CBBF088828983A3E0A2E750FE
:104E000022901CB2E0FA8E828F83A3A3A3E06A6093
:104E1000128E828F83A3E054DF6441700674019088
:104E20001CBCF08E828F83A3A3A3E0901CB2F0126F
:104E300050211251DA7F0102071A74F71206E9EACB
:104E4000FEEBFF12511BE9640170047901807312BB
:104E5000502190190DEEF0A3EFF0901CB87400F003
:104E6000A37400F07401901908F0901CBF78081228
:104E700005C190190978081205E590190DE0F8A30D
:104E8000E0F5838882A3A3A3A3E0F912514390190C
:104E90000DE0F8A3E0F5838882E0FAA3E0FB12516D
:104EA0004F90190DE0F8A3E0F5838882A3A3E0FA00
:104EB000A3E0FB12515A7A0B7B4D1251E512501EA2
:104EC00079007F0402071A74F81206E9EAFEEBFF84
:104ED0008C088D09890A901908E070031251C17A73
:104EE00067A90A125451E9F50A1251FB1251CFA9D0
:104EF0000AAC08AD09EEFAEFFB124CAAE9F97A0FF9
:104F00007B1912516D1251DA1251B2E990190DE06C
:104F1000F8A3E0F5838882A3A3A3A3A3E0601C7495
:104F200000901907F07A4A7B0212509E901907E010
:104F30006004740080027401FE80027E00901908F3
:104F4000E070031251C8EE7007901906E02401F0DA
:104F5000EEF97F0302071A901CBCE0F92274F512E7
:104F600006E98A088B09890AECFEEDFFE510240B9F
:104F7000F8E2FA08E2FB901CBBE0F83395E0F98E0A
:104F8000828F83E8F0A3E9F0901CB3E0F8A3E0F986
:104F90008A828B83E8F0A3E9F0125021AA0A901CC0
:104FA000B7E0F9125451E9F50C750D00780C1207B1
:104FB000CB901CB8E0FCA3E0FDAA08AB0912545E3C
:104FC00005100510EE64007003EF64006024901C6F
:104FD000BBE0F5083395E0F50912513DE9F8790099
:104FE000E508C398F8E50999F98E828F83E8F0A364
:104FF000E9F07400901CBCF012501EAA0A901CB775
:10500000E0F91254517F0602071A7401901908F052
:105010001251C1227400901908F01251C822D2AF67
:1050200022C2AF22748055C6FA53BEFBE59DA2E5AD
:1050300050FAE59DA2E240F40074016970077449DA
:105040004AF5C68005E970028AC6E5C6FAE59EFB08
:10505000EA6B70F943BE0422E9FAE59EA2E640033A
:10506000790122EA700553C67F800874016A7003D3
:1050700043C680E5C6FBE59EFCEB6C70F979002227
:105080007900125058E96010790112502479001209
:105090005058E96003125246790012502422EBC3A3
:1050A00013FBEA13FAEAF8EBF974FF28FA74FF39F4
:1050B000FB74006870037400696013000000000056
:1050C00000000000000000000000000080D72274F3
:1050D000FA1206E9EAFEEBFFEEF8EFF974FF28FE9C
:1050E00074FF39FF740068700374006960097AE81E
:1050F0007B0312509E80E17F0102071AE9FAE9C39F
:1051000094045013EA45BEF5BE7400800104C394B4
:105110000440FA7587012275870022906189E04476
:1051200060F074099061FAF074159061B2F0740047
:105130009061AEF01252451251DA790022901CBEF5
:10514000E0F92275F005E9A424D490618FF022EAF9
:10515000906174F0EB906175F022EA906172F0EB6F
:10516000906173F022E9906190F0790022C008C04C
:105170000975E1EE7591FD7C0080138C08750900BE
:10518000EA2508F582EB3509F583E0F5D90CECC387
:105190009940E8D009D008228011E5D98A828B8312
:1051A000F08A828B83A3AA82AB8319E9C39401504E
:1051B000E92275E1E9E591A2E150FA7591FD7900E6
:1051C0002275E1EC75E1E32275E1EF75E1EC2290E7
:1051D00061A3E0C2E6F0539AFE229061A3E0D2E61A
:1051E000F0439A0122A2AFE492E0FCC2AF901A020F
:1051F000EAF0A3EBF0ECA2E092AF22906193E054CE
:105200002270F822C0E074F212073FA2AFE492E0ED
:10521000FEC2AFE5E9A2E65022901A02E0640070F7
:1052200004A3E06400600E901A02E0F8A3E0F583A6
:1052300088821206E7759B0053E9BFEEA2E092AFA9
:105240007F01020788227901125422790212542226
:10525000790312542279041254227A327B001250BC
:10526000CF80E3C0E074F112073FC2C5E589700347
:105270000252F37E008076750801750900EE780809
:105280001206D4AF08E5895F6062EEF87900E87530
:10529000F002A4C8AAF075F000A42AFA75F002E999
:1052A000A42AF9E82404F582E9341AF583E06400BD
:1052B0007004A3E06400602EEEF87900E875F00257
:1052C000A4C8AAF075F000A42AFA75F002E9A42A8D
:1052D000F9E82404F582E9341AF583E0F8A3E0F54F
:1052E0008388821206E7EFF45589F5890EEEC394A0
:1052F0000840847F02020788C0E074F112073FC2B1
:10530000EBE58A70030253887E008076750801758C
:105310000900EE78081206D4AF08E58A5F6062EEF5
:10532000F87900E875F002A4C8AAF075F000A42A84
:10533000FA75F002E9A42AF9E82414F582E9341A8E
:10534000F583E064007004A3E06400602EEEF87959
:1053500000E875F002A4C8AAF075F000A42AFA7556
:10536000F002E9A42AF9E82414F582E9341AF58355
:10537000E0F8A3E0F58388821206E7EFF4558AF59A
:105380008A0EEEC3940840847F02020788C0E0744E
:10539000F112073FC2E8E58B700302541D7E0080C6
:1053A00076750801750900EE78081206D4AF08E595
:1053B0008B5F6062EEF87900E875F002A4C8AAF08D
:1053C00075F000A42AFA75F002E9A42AF9E8242469
:1053D000F582E9341AF583E064007004A3E0640008
:1053E000602EEEF87900E875F002A4C8AAF075F016
:1053F00000A42AFA75F002E9A42AF9E82424F58227
:10540000E9341AF583E0F8A3E0F58388821206E711
:10541000EFF4558BF58B0EEEC3940540847F0202AA
:105420000788E91207F701035054325438543E54A8
:105430004454639001E59022639002E590226390CA
:1054400010E59022638002E580901A2EE06401F05E
:1054500022E9FBEBC39A5003EBF922EAF92274F933
:105460001206E9E5102407F8E2FE08E2FFEAF8EB8D
:10547000F980188C828D83E088828983F0A3A882CA
:10548000A9838C828D83A3AC82AD838E088F09742F
:10549000FF25081E74FF3509FFE5087002E5097055
:1054A000D27F0202071AFFFFFFFFFFFFFFFFFFFF90
:1054B000FFFFFFFFFFFFFFFFFFFFFFFFFFFFFFFFFC
:1054C000FFFFFFFFFFFFFFFFFFFFFFFFFFFFFFFFEC
:1054D000FFFFFFFFFFFFFFFFFFFFFFFFFFFFFFFFDC
:1054E000FFFFFFFFFFFFFFFFFFFFFFFFFFFFFFFFCC
:020000040001F9
:020000040002F8
:100000000100F332F23200020200000000000000A2
:10001000000000AAAA005102000008001000980089
:100020002F000000000000000000FFFFFFFF0000A5
:100030000000FFFFFFFFFFFFFFFF00000000FFFFCA
:10004000FFFFFFFFFFFFFFFFFFFFFFFFFFFF0000BE
:100050000000FFFFFFFFFFFFFFFF000000000000A8
:10006000000000000000FFFFFFFF00000000000094
:100070000000FFFFFFFFFFFFFFFF00000000000088
:10008000000000000000FFFFFFFF00000000FFFF76
:10009000FFFFFFFFFFFF0000000000000000FFFF68
:1000A000FFFFFFFFFFFF0000000000000000FFFF58
:1000B000FFFF000000000000000000000000FFFF44
:1000C000FFFFFFFFFFFF00000000FFFFFFFFFFFF3C
:1000D000FFFF0000000000000000FFFFFFFFFFFF28
:1000E000FFFF00000000FFFFFFFFFFFFFFFF00001A
:1000F00000000000000000000000FFFFFFFF000004
:1001000000000000000000000000FFFFFFFF0000F3
:10011000000000000000FFFFFFFF000000000000E3
:10012000000000000000FFFFFFFF000000000000D3
:100130000000FFFFFFFFFFFFFFFF00000000FFFFC9
:10014000FFFF000000000000000000000000FFFFB3
:10015000FFFFFFFFFFFF0000000000000000FFFFA7
:10016000FFFFFFFFFFFF00000000FFFFFFFF000099
:1001700000000000000000000000FFFFFFFFFFFF85
:10018000FFFF0000000000000000FFFFFFFF000075
:1001900000000000000000000000FFFFFFFFFFFF65
:1001A000FFFF00000000FFFFFFFFFFFFFFFF000059
:1001B000000000000000FFFFFFFF00000000000043
:1001C000000000000000FFFFFFFFFFFFFFFF000037
:1001D0000000FFFFFFFFFFFFFFFF00000000000027
:1001E0000000FFFFFFFF0000000000000000000013
:1001F0000000FFFFFFFFFFFFFFFF00000000FFFF09
:10020000FFFFFFFFFFFF00000000FFFFFFFFFFFFFA
:10021000FFFF00000000FFFFFFFFFFFFFFFFFFFFEA
:10022000FFFF0000000000000000FFFFFFFFFFFFD6
:10023000FFFF0000000000000000FFFFFFFFFFFFC6
:10024000FFFFFFFFFFFF00000000000000000000B4
:100250000000FFFFFFFF00000000FFFFFFFF0000A6
:10026000000000000000BBBBAAAA01750100000845
:100270000030007F004700FFFFFFFF00FFFC003F52
:10028000F87E3FF9FF9FF3FFDFF3FFDFF3FFDFF9B6
:10029000FF9FF8FF1FFC003FFE00FFFFFFFFFFF87E
:1002A0007FFC103FF8031FFBC79FF3CFDFF3CFDFC7
:1002B000F3CFDFF3CF9FF9879FFC103FFE707FFFE6
:1002C000FFFFFFF67FF8063FF80F9FFBCF9FFBDF96
:1002D000DFFB9FDFFBDFDFFBCF9FFBC71FFBE03FA9
:1002E000FFF07FFFFFFFFFF1FFFFE1FFFFC5FFFF13
:1002F0009DFFFF3DFFFC7DFFF8FDFFF0001FF000BC
:100300001FFFFDFFFFFDFFFFFFFFFBFFFFFBFFFFE9
:10031000FBFFDFFBFE1FFBF81FFBE0FFFBC7FFFB44
:100320001FFFFA3FFFF8FFFFF9FFFFFFFFFFFE7C13
:100330007FFC7C3FF8FF1FFBFF9FF3EFDFF3EFDF56
:10034000F3EFDFF3CF9FF8879FF8103FFE307FFF7A
:10035000FFFFFE7C7FFC7C3FF8FF1FFBFF9FF3EF5E
:10036000DFF3EFDFF3EFDFF3CF9FF8879FF8103F66
:10037000FE307FFFFFFFFFF67FF8063FF80F9FFB81
:10038000CF9FFBDFDFFB9FDFFBDFDFFBCF9FFBC7E9
:100390001FFBE03FFFF07FFFFFFFFFF67FF8063F08
:1003A000F80F9FFBCF9FFBDFDFFB9FDFFBDFDFFB58
:1003B000CF9FFBC71FFBE03FFFF07FFFFFFFFFF674
:1003C0007FF8063FF80F9FFBCF9FFBDFDFFB9FDF30
:1003D000FBDFDFFBCF9FFBC71FFBE03FFFF07FBBD7
:1003E000BB000000000000000000FFFFFFFFFFFF58
:1003F000FFFF0000000000000000FFFFFFFFFFFF05
:1004000000000000000000000000000000000000EC
:1004100000000000000000000000000000000000DC
:1004200000000000000000000000000000000000CC
:1004300000000000000000000000000000000000BC
:100FF000000000000000000000000000000000FFF2
:10100000FDE1FFFFFFFFFFFFFFFE21FFFD8CFFFD66
:10101000DEFFFDDEFFFD8CFFFE21FFFFFFFFFFFF78
:10102000FFFFFFFFFFFFFFFFFFFFBBBBAAAA090DEA
:10103000010000C800200007013F00FFFFFFFFFF85
:10104000FFFFFFFFFFFFFFFF6FEFFFFF6F1FFFFFC0
:10105000B67FFFFFBFEFFFFF35DFFFFF6D3FFFFFF5
:101060005CFFFFFF700FFFFF5CFFFFFF6D7FFFFF67
:101070006D9FFFFF35DFFFFFFFEFFFFFEFBFFFFFBC
:10108000EFBFFFFF007FFFFFEF6FFFFFFF1FFFFFBF
:10109000007FFFFFFFFFFFFFFFFFFFFF801FFFFF3E
:1010A000FFFFFFFFFFFFFFFF000FFFFFFFFFFFFF3F
:1010B000FFFFFFFFFFFFFFFFFFFFFFFFFFFFFFFF40
:1010C000FFFFFFFFFFFFFFFFFFFFFFFFFFFFFFFF30
:1010D000FFFFFFFFFFFFFFFFFFFFFFFFFFFFFFFF20
:1010E000FFFFFFFFFFFFFFFFFFFFFFFFFFFFFFFF10
:1010F000FFFFFFFFFFFFFFFFFFFFFFFFFFFFFFFF00
:10110000FFFFFFFFFFFFFFFFFFFFFFFFFFFFFFFFEF
:10111000FFFFFFFFFFFFFFFFFFFFFFFFFFFFFFFFDF
:10112000FFFFFFFFFFFFFFFFFFFFFFFFFFFFFFFFCF
:10113000FFFFFFFFFFFFFFFFFFFFFFBBBBAAAA0AE6
:10114000CD000000C800380007014F00FFFFFFFF7F
:10115000FFFFFFFFFFFFFFFFFF07BFFF77BFFF7727
:10116000BFFF77BFFF737FFF787FFFFFFFFFFFFFAA
:10117000FFC0FFFFBF3FFF7FBFFF7FBFFF3F7FFF7E
:10118000C0FFFFFFFFFFFFFFFFC0FFFFBF3FFF7F6D
