:100000000200D6020803FFFFFFFFFF02080BFFFFFD
:10001000FFFFFF020813FFFFFFFFFF02081BFFFFA8
:10002000FFFFFF020823FFFFFFFFFF02082BFFFF78
:10003000FFFFFF020833FFFFFFFFFF02083BFFFF48
:10004000FFFFFF020843FFFFFFFFFF02084BFFFF18
:10005000FFFFFF020853FFFFFFFFFF02085BFFFFE8
:10006000FFFFFF020863FFFFFFFFFF02086BFFFFB8
:10007000FFFFFF020873FFFFFFFFFF02087BFFFF88
:10008000FFFFFF020883FFFFFFFFFF02088B120044
:10009000EAB900030200D0E49001007835790980C4
:1000A00002F0A3D8FCD9FA900934AA82AB83900756
:1000B000C0782979018015E493A3AC82AD838A824C
:1000C0008B83F0A3AA82AB838C828D83D8E9D9E796
:1000D00012049D1200E575D00075815F75100075E2
:1000E000110102008E00000080FB7901222510C55D
:1000F00082C0E0E51134FFC583C0E0E510C39582FE
:1001000024F910AF0885831185821080088583113A
:10011000858210D2AFCEF0A3E520F0A37808E608E0
:10012000F0A3DEFAEFF0A3E58124FBF8E608F0A3E4
:10013000E608F0A30808E608F0A3E608F0A3158196
:100140001581D0E0FED0E0F815811581E8C0E0EE21
:10015000C0E022851183851082E0A3FEE0A3F52094
:100160007808E0A3F608DFFAE0A3FFE0A3C0E0E030
:10017000A3C0E0E0A3C0E0E0A3C0E010AF08858228
:10018000108583118008858210858311D2AFD083BA
:10019000D0822274028000CCC0E0EDC0E0E510C344
:1001A0009CCCAD1150011D10AF068C108D11800636
:1001B0008C108D11D2AF1201C0D0E0FDD0E0FC2236
:1001C000CAC0E0E0A3C582CCC582C583CDC583F09B
:1001D000A3C582CCC582C583CDC583DAE6D0E0CA8B
:1001E00022C008C3E096F50808A3E096420808A3D9
:1001F000E096420808A3E09645087001D3D0082293
:100200002510F58210AF08F510400215118008F591
:100210001040021511D2AF85118322C0D0251010D5
:10022000AF08F510500205118008F51050020511B5
:10023000D2AFD0D0226017080808C6A2E713C618AC
:10024000C613C618C613C618C613C6D5E0E9226081
:1002500016080808C6C313C618C613C618C613C6A0
:1002600018C613C6D5E0EA22251010AF08F51040D5
:100270000215118008F51040021511D2AF22E06678
:10028000701008A3E066700A08A3E066700408A373
:10029000E06622C3E697F60809E697F60809E697AE
:1002A000F60809E697F622E026F008A3E036F00803
:1002B000A3E036F008A3E036F022700422600D18A7
:1002C000C6C333C608C633C6D5E0F41822E026F606
:1002D00008A3E036F608A3E036F608A3E036F622D7
:1002E00074028000C0E0F404120200D0E012031F88
:1002F00022C3E09608A3E09608A3E09608A3E09640
:1003000022600C08C6C313C618C613C6D5E0F42273
:10031000E0F608A3E0F608A3E0F608A3E0F622CA98
:10032000C0E0E6F0A308DAFAD0E0FA22E0FAA3E0AF
:10033000FBA3E0FCA3E0FD222510F582E43511F5D6
:100340008322E47374F11200ED74F61202687406ED
:10035000120338E4F0A3F0A3F0A3F0900900780CA6
:100360001203108011780C7908120293740612039C
:100370003878081202A7E50C450D450E450F7003AD
:10038000020491900934780C1201E1500D8510821D
:10039000851183E4F0A374048012850C08850D098F
:1003A000851082851183E508F0A3E509F0851082A8
:1003B00085118312019375080075090178081202EE
:1003C000E0740A120338780812031090093878088C
:1003D0001202CDAA08AB09AC0AAD0B12073D74049A
:1003E00012021B8510828511831201937508007516
:1003F000090578081202E0740A120338780812031B
:100400001090093C78081202CDAA08AB09AC0AADDD
:100410000B12073D740412021B7402120338E4F03D
:10042000A3F0A3F0A3F08012900940780812031003
:10043000740212033878081202A78510828511838E
:10044000E0F508A3E0F509E4F50AF50B74021203E0
:100450003878081202F1400302036574021203386F
:10046000780812031074002508F58274013509F527
:1004700083E0F9740212033878081203107400251F
:1004800008F58274053509F583E069609B79018080
:10049000027900740A12021B7F0802015374FC12D5
:1004A00002681205E580288510828511837407F0A3
:1004B000A374B0F0A374D0F0A3740AF0790185108E
:1004C00082851183AC82AD837A327B6612077F7A94
:1004D000007B0979011206F0900944780812031094
:1004E00090090C780812027E60030205CB9009483F
:1004F0007808120310900908780812027E7003022F
:1005000005CB90094C780812031090090478081262
:10051000027E60030205CB90090078081203107474
:10052000027808120235851082851183F0A3749831
:10053000F0A37401F0A3E4F0FE7F02806AE508F501
:100540000E850E0C750D007402780C1202BA780C30
:100550001202E0750C00750D01780C1202E07404B3
:1005600012033812032C12073D740412021BA90E49
:100570007C007D01EEFAEFFB12077F850E0CE4F59F
:100580000DF50EF50F7808790C120293900950784A
:100590000C120310851082851183780C1202A7EECD
:1005A0002480FEEF3400FFE5084509450A450B604D
:1005B0000F90095478081201E15082750E808081F5
:1005C000120344E970030204A780FE7A167B0979BE
:1005D000001206F090092AE0F8A3E0F58388821261
:1005E00003420204CF7409F5D575D42CD2B8227415
:1005F000F71200EDE9FE740F5EF508750900740B43
:1006000078081202BAEA2400F8EB3480F9E82400F2
:10061000E93509F9E5C7FFEEC4540FFAE5C754F808
:100620004AF5C77409120338E0FAA3E0FB801C887E
:10063000828983E08C828D83F088828983A3A8825B
:10064000A9838C828D83A3AC82AD838A088B09E554
:100650000824FF1AE50934FFFBE508450970D08F2F
:10066000C77F0202015374F71200EDED90092CF0E0
:10067000ECA3F0A37462F0A37473F074091203384E
:10068000E0FCA3E0FD8C088D0974067808120301D4
:10069000E508900930F0EC333354FCA3F0A3741256
:1006A000F0A37442F053D1FE75D601EA906271F066
:1006B000EBA3F01206D480A9C082C083E9C33390B3
:1006C0006272F09062707401F000E0648060FBD0B0
:1006D00083D08222C082C083C0A8C2AF906270E083
:1006E000D2E1F0E0A2E740FBD0E0A2E792AF80DFEA
:1006F00074F11200EDE98A0C8B0D75080070087515
:100700000908750A008006750998750A01750B00BD
:10071000750E16750F00780E1202E0780C1202E0CA
:1007200090095878081202CDAA08AB09AC0AAD0BA3
:1007300012073D740412021B7F0802015374F31266
:1007400000ED8A088B098C0A8D0B740D120338E0BA
:10075000FCA3E0FD740F120338E0F50CA3E0F50DE7
:10076000780C1202E0EB5407FB740B780812024F6E
:10077000A9081205EF740212021B7F0602015374CE
:10078000F31200EDEAFEEBFF8C088D09890AEEF802
:10079000EF5401F9E84970108E0C8F0D7409780C34
:1007A000120301A90C1206B8850A0C750D00780C0D
:1007B0001202E0AC08AD09EEFAEFFB12066680B556
:1007C0000104000000080000009801000100000082
:1007D00010E5302507B0D00A1EABDE0A000200008B
:1007E00081000000C0000000FFFFFFFFFFFFFFFFD0
:1007F000FFFFFFFFFFFFFFFFFFFFFFFFFFFFFFFF09
:1008000002136F0210BAFFFFFFFFFFFFFFFFFFFFA2
:10081000FFFFFFFFFFFFFFFFFFFFFF021119FFFFB9
:10082000FFFFFFFFFFFFFFFFFFFFFF021F62FFFF52
:10083000FFFFFF020C41FFFFFFFFFFFFFFFFFFFF76
:10084000FFFFFFFFFFFFFFFFFFFFFF0210EDFFFFB6
:10085000FFFFFFFFFFFFFFFFFFFFFFFFFFFFFFFFA8
:10086000FFFFFFFFFFFFFFFFFFFFFF020BA3FFFFE5
:10087000FFFFFFFFFFFFFFFFFFFFFF020BEBFFFF8D
:10088000FFFFFF021082FFFFFFFFFFFFFFFFFFFFE1
:10089000FFFFFFFFFFFFFFFFFFFFFFFFFFFFFFFF68
:1008A000FFFFFFFFFFFFFFFFFFFFFFFFFFFFFFFF58
:1008B000FFFFFFFFFFFFFFFFFFFFFFFFFFFFFFFF48
:1008C000FFFFFFFFFFFFFFFFFFFFFFFF10E53025EA
:1008D0001100F8000008084C473032005152303106
:1008E00000B11F9124E920212259234357435F314E
:1008F0003032004357435F31303200FFFF1E4ABAA7
:100900004D4C50EE538157165BC65E7962FB658D88
:1009100069366D106335082E42344B024F221206A1
:1009200042055AFF00000000000000000000000027
:100930000000000000005549D61ADC1AE21AE81A35
:10094000EE1AF41AFA1A001B5152303100030082D9
:100950001A0202881A02258E1A0246E8170400BC01
:1009600016000000000300941A02169A1A0217A635
:100970001A021E12180218EE170219F417021AFAB8
:1009800017021B0018021D0618021C0C180213BEC9
:100990001A0214B81A0215C41A022CA01A022DB297
:1009A0001A0215C41A0242AC1A0246E8170400BC27
:1009B00016000000000300981C02169E1C0217AAD5
:1009C0001C021E12180218EE170219F417021AFA66
:1009D00017021B0018021D0618021C0C180213BC7B
:1009E0001C0214C21C0215C81C022CA41C022DB629
:1009F0001C0242B01C0246E8170400BC16000000AE
:100A0000000300181802391E18000000000300F24D
:100A10001C0239F81C0234FE1C0400BC1600000045
:100A2000000300161A0217221A0216461A021E1294
:100A3000180218EE170219F417021AFA17021B000F
:100A400018021D0618022E1C1A021C0C180213286C
:100A50001A02142E1A0215341A022D401A022C4CB6
:100A60001A02423A1A0246E8170400BC16000000B7
:100A7000000300521A0213581A02265E1A021F645B
:100A80001A02276A1A0220701A0230761A023F7C74
:100A90001A0246E8170400BC160000000003002AF2
:100AA0001B0214301B0228361B02213C1B02294268
:100AB0001B0222481B02314E1B0240541B0246E817
:100AC0001704005A1B000000000300181E02151E28
:100AD0001E022A241E02232A1E022B301E02243C40
:100AE0001E0232361E0241481E0245421E0246E8E0
:100AF000170400BC16000000000300921F02179E9E
:100B00001F021E861F0218861F0219861F021A86E0
:100B10001F021B861F021D861F021C861F02158CCA
:100B20001F0213981F022D7A1F0235741F0246E818
:100B3000170400BC160000000003000A1D023688DE
:100B40001D02397C1D0203101D0204161D02051C26
:100B50001D0206221D0207281D02082E1D0209344F
:100B60001D020A3A1D020B401D020C461D020D4CCF
:100B70001D020F521D0210581D02385E1D0400BCDC
:100B80001600000000781B901BE01B2C1C381C4C2E
:100B90001C9C1CF41C241D641DC81C4357435F315E
:100BA000303200C0E074F1120E90C2C5E5896036A3
:100BB0007E00750801750900EE7808121349AF0828
:100BC000E5895F601AEEC333F8E433F9745328F50E
:100BD000827419120C306003121FAFEFF452890EA9
:100BE000EEC3940840CC7F02020EEFC0E074F11215
:100BF0000E90C2EBE58A60367E007508017509002B
:100C0000EE7808121349AF08E58A5F601AEEC33325
:100C1000F8E433F9746328F5827419120C30600318
:100C2000121FAFEFF4528A0EEEC3940840CC80B688
:100C300039F583E0F8A3E0F988828983E58245836A
:100C400022C0E074F1120E90E58BA2E0504412171E
:100C50004CE964097033901AA2E07036E4F508F5A7
:100C600009780812126F780812126F9089291210F1
:100C7000BC908929121419793912182A7408121291
:100C800020901AA27401F080099001CAE004F012C9
:100C900019AA758B00C2E8020BE6C3E498F8E49940
:100CA000F9120CDB8026C3E49AFAE49BFBE920E707
:100CB000E9120CDBE498F8E499F922C3E498F8E42B
:100CC00099F9120CDBE498F8E499F9C3E49AFAE490
:100CD0009BFB22EB20E7CFE920E7E0B90010BB0047
:100CE00008E88AF084F8AAF022E4FBC8FA22EB7044
:100CF000227B10C833C8C933C9335007C39AC3DB3A
:100D0000F280069A50012ADBEAC833F4C8C933F4EA
:100D1000C9FA2275F008E4C833C8C933C933C99A7F
:100D2000C99B5004C92AC93BD5F0ECFBC833F4C8B1
:100D3000E4C9FA22080808EAC0E0EBC0E086F0E760
:100D4000A4FA180986F0E7A42AFA180986F0E7A49D
:100D50002AFA180986F0E7A42AFA1986F0E7A4FB14
:100D6000E5F02AFA190886F0E7A42BFBE5F03AFA39
:100D7000190886F0E7A42BFBE5F03AFA1818098663
:100D8000F0E7A4C5F02BFBE43AFA1908E7C5F0C672
:100D9000A426F6E5F03BFBE43AFA1886F0E7A4F661
:100DA000E5F00826F6E43B08F6E43A08F6D0E0FB66
:100DB000D0E0FA22E4CFC0E0E4CEC0E0E4CDC0E071
:100DC000E4CCC0E075F020C3E633F608E633F6085D
:100DD000E633F608E633F6181818EC33FCED33FD6D
:100DE000EE33FEEF33FFC3EC9709ED9709EE970959
:100DF000EF97191919400FFFEC97FC09ED97FD09C2
:100E0000EE97FE191906D5F0BEECF709EDF709EEDD
:100E1000F709EFF7191919D0E0FCD0E0FDD0E0FE9A
:100E2000D0E0FF222518C582C0E0E51934FFC58354
:100E3000C0E0E518C3958224F810AF0885831985B2
:100E400082188008858319858218D2AFCEF0A3E579
:100E500020F0A37808E608F0A3DEFAEFF0A3E5811E
:100E600024FAF8E608F0A3E608F0A3E608F0A308E1
:100E700008E608F0A3E608F0A315811581D0E0FE8E
:100E8000D0E0F8158115811581E8C0E0EEC0E022C0
:100E9000C0D02518C582C0E0E51934FFC583C0E085
:100EA000E518C3958224F310AF088583198582184D
:100EB0008008858319858218D2AFC8F0A3E9F0A312
:100EC000EAF0A3EBF0A37908E709F0A3D8FAECF075
:100ED000A3EDF0A3EEF0A3EFF0A3D0E0F0A3D0E0F9
:100EE000F0A3D0E0F0A3E520F0A3E5F0F0A3228585
:100EF0001983851882E0C0E0A3E0F9A3E0FAA3E03B
:100F0000FBA37808E0F608A3DFFAE0FCA3E0FDA36A
:100F1000E0FEA3E0FFA3E0C0E0A3E0C0E0A3E0F5B3
:100F2000D0A3E0F520A3E0A3F5F010AF0885831966
:100F30008582188008858319858218D2AFD082D027
:100F400083D0E0F8D0E032121425B90003020F89F3
:100F5000E49001817881791A8002F0A3D8FCD9FA53
:100F6000901B01AA82AB839008D678CE79038015B6
:100F7000E493A3AC82AD838A828B83F0A3AA82AB75
:100F8000838C828D83D8E9D9E775828F7583FE744F
:100F9000011211E77582AA75831F74001211E712FE
:100FA0001381181818120DB412139219191922125C
:100FB0001392191919080808E618181820E7E01202
:100FC0000DB412138118181822090909E719191903
:100FD00020E7DC080808E618181820E703020DB41B
:100FE000121381181818120DB41213811818181240
:100FF000139219191922851983851882E0A3FEE03E
:10100000A3F5207808E0A3F608DFFAE0A3FFE0A349
:10101000C0E0E0A3C0E0E0A3C0E0E0A3C0E0E0A344
:10102000C0E010AF08858218858319800885821872
:10103000858319D2AFD083D0820211EDD083D082C4
:10104000E9C0E0E493A3C386F0C5F095F0F908E4A5
:1010500093A386F0C5F095F0700BE493A3C3994079
:1010600005E9048002A3E475F002A42582F582E577
:10107000F03583F583D0E0F9E493A3C0E0E493C0B6
:10108000E022C0E074F2120E90A2AFE433FEC2AFD1
:10109000E5E9A2E6501A90197CE0F8A3E0F9E849E6
:1010A0006008E0F5838882121FAF759B0053E9BF8B
:1010B000EEA2E092AF7F01020EEF003274048004D2
:1010C00074028000CCC0E0EDC0E0E518C39CCCAD5C
:1010D0001950011D10AF068C188D1980068C188DC3
:1010E00019D2AF121188D0E0FDD0E0FC22C0E0742C
:1010F000F2120E90A2AFE433FEC2AF901987E0F86F
:10110000A3E0F9E8496008E0F5838882121FAFEE9A
:10111000A2E092AF7F01020EEFC0E074F2120E90D7
:1011200074FF121282E5F9851882851983F079011E
:10113000AC82AD837A897B19121E5474011212207D
:101140007F01020EEFA2E792D65002F40430F706B8
:1011500063F0FF05F0B3400384800384F40430D6C9
:101160000563F0FF05F022C082C083C0A8C2AF9023
:101170006270E0D2E1F0E0A2E740FBD0E0A2E792AB
:10118000AFD083D0820211EDCAC0E0E0A3C582CC0B
:10119000C582C583CDC583F0A3C582CCC582C58376
:1011A000CDC583DAE6D0E0CA2270090808082260BB
:1011B00016181818C6C333C608C633C608C633C6C1
:1011C00008C633C6D5E0EA22C008C3E096F5080891
:1011D000A3E096420808A3E096420808A3E09645DB
:1011E000087001D3D00822C09FF59FE473D09F22DE
:1011F000D083D082C09FE493C0E0740193C0E074B8
:101200000293F59F222518F58210AF08F5184002C9
:1012100015198008F51840021519D2AF85198322D7
:10122000C0D0251810AF08F518500205198008F530
:101230001850020519D2AFD0D0226016080808C68F
:10124000C313C618C613C618C613C618C613C6D508
:10125000E0EA22C3E0C696F608A3E0C696F608A325
:10126000E0C696F608A3E0C696F6227404800674DB
:101270000280027401C0E0F404121205D0E01214DE
:101280000022251810AF08F518400215198008F53E
:101290001840021519D2AF22E066701008A3E0666C
:1012A000700A08A3E066700408A3E06622C3E7960C
:1012B0000809E7960809E7960809E796A2D265D0DB
:1012C0003322C3E697F60809E697F60809E697F68B
:1012D0000809E697F622C3E096F008A3E096F00826
:1012E000A3E096F008A3E096F022E056F608A3E00B
:1012F00056F608A3E056F608A3E056F622E647F6AF
:101300000809E647F60809E647F60809E647F6221F
:10131000E026F008A3E036F008A3E036F008A3E0EA
:1013200036F022E026F608A3E036F608A3E036F60B
:1013300008A3E036F622E627F60809E637F608099C
:10134000E637F60809E637F622700422600D18C663
:10135000C333C608C633C6D5E0F41822E657F608EC
:1013600009E657F60809E657F60809E657F6227522
:10137000D00075813F751881751901759F00020FA6
:1013800047E4C396F608E496F608E496F608E49671
:10139000F622E4C397F709E497F709E497F709E41D
:1013A00097F722C3E7960809E7960809E796080920
:1013B000E79622600D08C6A2E713C618C613C6D565
:1013C000E0F322C3E09608A3E09608A3E09608A302
:1013D000E09622E0F608A3E0F608A3E0F608A3E012
:1013E000F622E6F008A3E6F008A3E6F008A3E6F08C
:1013F00022600C08C6C313C618C613C6D5E0F42273
:10140000CAC0E0E6F0A308DAFAD0E0FA22EAF0A3D4
:10141000EBF0A3ECF0A3EDF022E0FAA3E0FBA3E0F5
:10142000FCA3E0FD22E5C754F84401F5C779012289
:101430002518F582E43519F583221211F023D9021B
:101440001211F04927001211F05027001211F084F8
:1014500027001211F08627001211F08827001211C0
:10146000F09C27001211F09E27001211F0A0270017
:101470001211F0D727001211F06A29001211F0AFF3
:1014800029001211F0532A001211F0912A001211B2
:10149000F09E30001211F0C130001211F0EE300059
:1014A0001211F0BB31001211F0ED31001211F01EDB
:1014B00032001211F0BE32001211F060330012112E
:1014C000F09B33001211F07137001211F0843900D3
:1014D0001211F0183C001211F0703D001211F024AE
:1014E0003F001211F05B40001211F0B142001211E6
:1014F000F01343001211F0DA45001211F04B4700CF
:101500001211F0A248001211F0FC49001211F0F77C
:101510004A001211F05F4C001211F09B4E001211A4
:10152000F0EE4E001211F0F84F001211F08350004F
:101530001211F0B751001211F04352001211F0CF06
:1015400052001211F0E352001211F0215400121156
:10155000F0A454001211F09455001211F0AD560091
:101560001211F05657001211F0CA58001211F01A59
:1015700059001211F05E59001211F0935900121126
:10158000F0EA5A001211F0F05C001211F0F85C0061
:101590001211F07D5D001211F0AA5D001211F0CE63
:1015A0005D001211F0F65D001211F0005F001211E3
:1015B000F03B5F001211F0E95F001211F05C600077
:1015C0001211F0B860001211F0F060001211F05B1F
:1015D00061001211F0C762001211F09B6600121137
:1015E000F0E367001211F02069001211F00F6A0099
:1015F0001211F08D6A001211F0986A001211F0A217
:101600006A001211F0BA6A001211F0CF6A001211CA
:10161000F0EA6A001211F038B8021211F041B80273
:101620001211F094B8021211F0D9B9021211F0821D
:10163000A6021211F02BA7021211F0C0A90212117A
:10164000F0C1BF021211F0E9BF021211F020C00276
:101650001211F0B0C0021211F0FBC0021211F0AA78
:10166000C1021211F026C2021211F02D6B001211EC
:10167000F0396B001211F0456B001211F0886B000D
:101680001211F0D86B001211F0596C001211F0CF4A
:101690006C001211F05C6D001211F08B6D001211D4
:1016A000F0B56E001211F00371001211F0587100C4
:1016B0001211F09171001211F00172001211F0403C
:1016C00072001211F04E72001211F06172001211CC
:1016D000F0A676001211F0C277001211F01C79000A
:1016E0001211F07B7A001211F0927A001211F0C4FC
:1016F0007A001211F0E6FD011211F0749602121137
:10170000F0B996021211F0C496021211F0CF9602AF
:101710001211F03597021211F06697021211F07152
:1017200097021211F08B97021211F09C970212117E
:10173000F03898021211F0D498021211F02C9B028A
:101740001211F0E6DB021211F017DC021211F02781
:10175000DC021211F037DC021211F040DC0212112F
:10176000F084DC021211F0DADC021211F0BDEC019F
:101770001211F08BED011211F032EE011211F09006
:10178000F1011211F01FF2011211F0F8F201121121
:10179000F070F3011211F0DBF3011211F0EBF30121
:1017A0001211F001F5011211F011F5011211F020E2
:1017B000F5011211F0DCAF021211F008B0021211A3
:1017C000F051B0021211F0D6B0021211F0B4B10211
:1017D0001211F08EB2021211F0EDB2021211F0DE0F
:1017E000B3021211F0F89B021211F01B9C021211AD
:1017F000F0279C021211F0819C021211F0EF9D0261
:101800001211F0079E021211F01B9E021211F042FB
:101810009E021211F0869F021211F0DFE0021211F7
:10182000F093E1021211F048DD021211F06DDD02B9
:101830001211F019DE021211F05BE3021211F0A096
:10184000E3021211F037E5021211F0ECE20212117C
:10185000F042E3021211F0B9E5021211F0C5DF0205
:101860001211F04AE0021211F0B1E0021211F06719
:1018700011001211F058E5021211F05DE50212118B
:10188000F062E5021211F070E5021211F0AAE50211
:101890001211F0B3E5021211F0DDE4021211F0B9F9
:1018A000E3021211F0E6E3021211F0487B0012117C
:1018B000F05F7B001211F08F7B001211F0CC7B00E7
:1018C0001211F0EE7B001211F0107C001211F0C723
:1018D0007C001211F0257D001211F0307D001211F4
:1018E000F06D7D001211F0AD7D001211F05C7E00F4
:1018F0001211F0B97E001211F0CD7E001211F0ED40
:101900007E001211F0277F001211F0C5CC021211D7
:10191000F0ECCC021211F001CD021211F00ACD024E
:101920001211F01ACD021211F03ACD021211F04448
:10193000CD021211F0A7CD021211F007CE02121142
:10194000F012CE021211F038CE021211F04CCE027B
:101950001211F077CE021211F090CE021211F0594E
:10196000D8021211F0CFCE021211F0F9CE021211EC
:10197000F050CF021211F059CF021211F062CF02D3
:101980001211F073CF021211F084CF021211F09FE6
:10199000CF021211F09DC6021211F0A4C60212115C
:1019A000F049C7021211F0C7C7021211F0E4C702D2
:1019B0001211F0ECC7021211F0BAC8021211F0773E
:1019C000C9021211F087C9021211F0ACC90212113A
:1019D000F0A8E4021211F0C8E4021211F00DE402C2
:1019E0001211F032E4021211F04CE4021211F05420
:1019F000E4021211F0B2E1021211F0D6E10212116A
:101A0000F0DBE1021211F014E2021211F031E202F5
:101A10001211F045E2021211F011BC021211F09AFB
:101A2000BC021211F0BABC021211F091BD021211E7
:101A3000F0BDBD021211F00DBE021211F066BE0221
:101A40001211F0B2BE021211F06FBF021211F0BEFD
:101A5000BF021211F036C3021211F075C302121147
:101A6000F0ACC3021211F0FAC3021211F0CFC4029B
:101A70001211F0DDC4021211F063C5021211F0B4AC
:101A8000C5021211F0A2DE021211F0DADE0212110A
:101A9000F000DF021211F078AB021211F0C6AB02B7
:101AA0001211F01EAC021211F069AD021211F0CA4F
:101AB000AD021211F0FAAD021211F0E0AE021211F5
:101AC000F044AF021211F084AF021211F09EE50251
:101AD0001211F0AFA9011211F017AB011211F06F42
:101AE000AB011211F000AC011211F06DAC0112113A
:101AF000F00DAD011211F08AAD011211F06AAE01C4
:101B00001211F03CAF011211F01AB0011211F08C59
:101B1000B1011211F09BB2011211F089B30112113F
:101B2000F058B4011211F0D4E5021211F06D8802E0
:101B30001211F0CF88021211F02A89021211F0342A
:101B400089021211F01A8A021211F02C8A02121163
:101B5000F0CC8A021211F0D38A021211F0068C0224
:101B60001211F0108C021211F02E8D021211F08160
:101B70008E021211F02590021211F07990021211CA
:101B8000F07291021211F05795021211F04A96026A
:101B90001211F0D2E2011211F0BDE4011211F004B1
:101BA000E5011211F0FBE6011211F040E8011211FB
:101BB000F0F7E9011211F042EC011211F05CEC01B6
:101BC0001211F0E7C1011211F0FDC1011211F09ADA
:101BD000C2011211F0CDC2011211F005C3011211A0
:101BE000F045C3011211F093C3011211F0F2C301C9
:101BF0001211F024C4011211F060C6011211F0ACF0
:101C0000C6011211F041C7011211F0EDC801121105
:101C1000F081CA011211F025CC011211F08ECC0115
:101C20001211F036CD011211F0B1CF021211F01BDA
:101C3000D0021211F050D1021211F0A0D8011211ED
:101C4000F0EDD8011211F017D9011211F09DD90150
:101C50001211F0B9D9011211F0E2D9011211F021DB
:101C6000DA011211F0B7DA011211F01CDC011211C5
:101C7000F0A3DC011211F04EDE011211F096DE012C
:101C80001211F00CDF011211F0F0E1011211F074E9
:101C9000A1021211F00BA2021211F039A2021211CC
:101CA000F068A3021211F0BBA3021211F022A402E9
:101CB0001211F082A4021211F0C9A4021211F05301
:101CC000A5021211F09EA5021211F017A602121120
:101CD000F00080021211F0DF84021211F0FC850284
:101CE0001211F0DBB5011211F00CBA011211F065FE
:101CF000BD011211F04BBE011211F035C1011211DC
:101D0000F07AC1011211F062D5021211F0E3CD0197
:101D10001211F0A8CE011211F0CECE011211F082F4
:101D2000CF011211F044D0011211F086D00112112E
:101D3000F0F6D0011211F01ED1011211F021D101E3
:101D40001211F024D1011211F0A3D1011211F038B7
:101D5000D2011211F091D2011211F0FED201121132
:101D6000F00BD3011211F01AD3011211F093D30129
:101D70001211F06FD4011211F0AED5011211F0ED75
:101D8000D6011211F032D8011211F096D8011211B9
:101D9000F064F5011211F07CF5011211F0A4F501C7
:101DA0001211F0C6F5011211F0D5F5011211F0DE95
:101DB000F5011211F0EBF5011211F0F1F50112111C
:101DC000F000F6011211F048F6011211F070F7015F
:101DD0001211F0A8F7011211F0D0F8011211F0154C
:101DE000FA011211F0ADFB011211F0E0FB0112112A
:101DF000F038FC011211F0C9FC011211F01AFD01BA
:101E00001211F02FFD011211F05AFD011211F0AE66
:101E1000FD011211F00FB4021211F021B4021211DF
:101E2000F066B4021211F0B7B4021211F009B50253
:101E30001211F0A9B5021211F074B6021211F0A13C
:101E4000B7021211F0E5B7021211F01FB802121119
:101E5000F0C3E5021211F060DA021211F0EFDA02BB
:101E60001211F071DB021211F0D1DB021211F078C5
:101E7000E5021211F0AEFF011211F059E402121145
:101E8000F053E2021211F00BE5021211F050D802E9
:101E90001211F030D8021211F00CA9011211F081C8
:101EA000A8011211F0C9A7011211F08EA50112119B
:101EB000F0D1A3011211F072A2011211F093A1014D
:101EC0001211F0C8A0011211F023A0011211F06448
:101ED0009F011211F0599C011211F04D9C01121139
:101EE000F0FA99011211F0E599011211F0DF980151
:101EF0001211F06297011211F05796011211F006BB
:101F000095011211F08993011211F0CA9101121179
:101F1000F0BF8E011211F03B8E011211F03B8D01CA
:101F20001211F06F8C011211F09D8B011211F03A19
:101F30008A011211F0E489011211F0C8890112110D
:101F4000F0B489011211F09B89011211F087890107
:101F50001211F06189011211F02ACC021211F07DE8
:101F6000D802C2C753BEFC321211F045CB02121187
:101F7000F0D7C9021211F05ED4021211F0E4D302BC
:101F80001211F055D3021211F053D3021211F05175
:101F9000D3021211F08DD2021211F04FD30212119E
:101FA000F01BD3021211F0B0CE0200000080FBE45F
:101FB00073000000000000000000000000000000AE
:101FC000000000007E000000000000000000000093
:101FD00001FF80000000000000000FFFF807FFE095
:101FE0001FFFF0000000003FFFF80FFFF01FFFFC95
:101FF000000000007FFFF80FC3F01FFFFE0000008D
:1020000000F000001F00F800000F00000001E000D9
:10201000001E007800000780000001C000003E00A4
:102020007C000003800000038000003C003C0000B6
:1020300001C00000038000003C003C000001C00023
:1020400000038000003C3C3C000001C00000038015
:1020500000003C3C3C000001C00000038000003E4A
:102060003C7C000001C0000001C000001E3C780064
:10207000000380000001E000001F3CF80000078022
:10208000000000F000000F3CF000000F0000000016
:102090007FFFF80F3CF01FFFFE000000003FFFF83D
:1020A000073CE01FFFFC000000000FFFF8013C8030
:1020B0001FFFF000000000000000003C00000000D6
:1020C00000000000000000003C00000000000000D4
:1020D00000000000003C00000000000000000000C4
:1020E00000000000000000000000000000000000F0
:1020F000000000000000000003FFFF000000FFFFE1
:10210000C0000000000FFFFF000000FFFFF0000014
:1021100000001E0003000000C0007800000000382E
:102120000003000000C0001C00000000700003005D
:102130000000C0000E00000000E00003000000C02E
:10214000000700000000C0007F000000C000030086
:10215000000000C0007F00001FC00003000000015D
:10216000C0006000001FC0000380000FFF800060FF
:10217000000018000001FFF00FFF80006000001851
:10218000000001FFF00FFF80006000001800000158
:10219000FFF00FFF800060000018000001FFF0005A
:1021A00001C0006000001FC0000380000000C000EC
:1021B0007F00001FC0000300000000C0007F00007F
:1021C00000C0000300000000E00003000000C000A9
:1021D0000700000000700003000000C0000E0000B7
:1021E0000000380003000000C0001C000000001EBA
:1021F0000003000000C00078000000000FFFFF0097
:102200000000FFFFF00000000003FFFF000000FFE0
:10221000FFC00000000000000000000000000000FF
:1022200000000000000000000000000000000000AE
:10223000000000000000010000000000000000009D
:10224000000000030000000000000000000000008B
:102250000700000000000007FFFFF0FFFE0FFFF087
:102260000000000007FFFFF0FFFE1FFFF00000006E
:102270000007FFFFF0FFFE1FFFF00000000007FF58
:10228000FFF0FFFE0FFFF0000000000780000000DD
:10229000000700F0000000000780000000000300BD
:1022A000F0000000000780000000000100F00000C6
:1022B00000000780000000000000F00000000007A0
:1022C00080000000000000F00000000007804000D7
:1022D00000000000F0000000000780600000000027
:1022E00000F0000000000780700000000000F00017
:1022F00000000007FFF83FFF87FFFFF0000000002D
:1023000007FFFC3FFF87FFFFF00000000007FFFC16
:102310003FFF87FFFFF00000000007FFF83FFF8747
:10232000FFFFF0000000000000700000000000004F
:10233000000000000000600000000000000000003D
:10234000000000400000000000000000000000004D
:1023500000000000000000000000003FFFFFFFFF42
:10236000FFFFFFC0000000007FFFFFFFFFFFFFFF38
:10237000E0000000007FFFFFFFFFFFFFFFE0000025
:1023800000007FFFFFFFFFFFFFFFE000000000787D
:1023900000000000000001E00000000078000000E4
:1023A00000000001E00000000078000000000000D4
:1023B00001FC000000007800000000000001FE00A9
:1023C0000000007800000108000001FE000000008D
:1023D000780000039C000001FE000000007800006F
:1023E00001F8000001FE0000000078000000F0008D
:1023F0000001FE0000000078000000F0000001FE77
:102400000000000078000001F8000001FE0000005C
:1024100000780000039C000001FE0000000078002E
:10242000000108000001FE0000000078000000002C
:10243000000001FE00000000780000000000000124
:10244000FC000000007800000000000001E0000037
:1024500000007800000000000001E0000000007FA4
:10246000FFFFFFFFFFFFFFE0000000007FFFFFFF17
:10247000FFFFFFFFE0000000007FFFFFFFFFFFFF07
:10248000FFE0000000003FFFFFFFFFFFFFFFC00075
:10249000000000000000000000000000000000003C
:1024A00000007FFFFFFFFC0000000000000001FFB4
:1024B000FFFFFFFF0000000000000003C000180045
:1024C0000780000000000000070000180001C000A5
:1024D00000000000000E0000180000E000000000F6
:1024E00000001C0000180000700000000000001830
:1024F0000003F8000030000000000000180003F89E
:102500000000300000000000003800030000003828
:102510000000000FFFFFF000030000001FFFFFF0AE
:102520000FFFFFF000030000001FFFFFF00FFFFF91
:10253000F000030000001FFFFFF00FFFFFF000039B
:102540000000001FFFFFF0000000380003F800004B
:1025500038000000000000180003F8000030000000
:10256000000000001800001800003000000000000B
:10257000001C0000180000700000000000000E00A9
:1025800000180000E0000000000000070000180034
:1025900001C000000000000003C000180007800018
:1025A000000000000001FFFFFFFFFF00000000002F
:1025B0000000007FFFFFFFFC0000000000000000A3
:1025C000000000000000000000FFFF000100013FCC
:1025D000F93FF93FF900010001FFFFFFFFFFFFFF97
:1025E000FFFFFFFFFF00010001FFFF3E013E013E34
:1025F000793E793E7900790079FFFF3E793E793E58
:10260000793E793E7900010001FFFF007F007FFEE7
:102610007FFE7FFE7F00010001FFFF007900793E11
:10262000793E793E793E013E01FFFF000100013E07
:10263000793E793E793E013E01FFFF00FF00FF3FFA
:10264000FF3FFF3FFF00010001FFFF000100013ECF
:10265000793E793E7900010001FFFF007900793E63
:10266000793E793E7900010001FFFFFFFFFFF1FF96
:10267000F1FFFFFFFFFFFFFFFFFFFFFFFFFFFFE394
:10268000E3E3E3FFFFFFFFFFFF80809C9C9C9C9C9B
:102690009C9C9C9C9C9C9C8080FCFCFCFCFCFCFC12
:1026A000FCFCFCFCFCFCFCFCFC8080FCFCFCFCFC62
:1026B00080809F9F9F9F9F80808080FCFCFCFCFC13
:1026C0008080FCFCFCFCFC80809C9C9C9C9C9C9CDA
:1026D0008080FCFCFCFCFCFCFC80809F9F9F9F9FFB
:1026E0008080FCFCFCFCFC808080809F9F9F9F9FE3
:1026F00080809C9C9C9C9C808080809C9C9C9C9CC2
:10270000FCFCFCFCFCFCFCFCFC80809C9C9C9C9CE1
:1027100080809C9C9C9C9C808080809C9C9C9C9CA1
:102720008080FCFCFCFCFC8080FFFFFFFFFFFFFFC4
:10273000FFFFFFFFFFE7E7E7E7FFFFE7E7E7E7FF69
:10274000FFFFFFE7E7E7E7FFFF7A1F7B160211EDC8
:10275000C082C0837C008C82AA82C3E49AF895E090
:10276000F9E82413F582E93478F583E0C0E07425B4
:102770002AF58274161262AFD0E0F00CECC3940814
:1027800040D4804C800B803DC082C08390159C80DB
:1027900007C082C08390159BE4F0803480F38025CD
:1027A000C082C08390159EE0F860057403687003D2
:1027B0007401F09001D4E090133FF01215C0790538
:1027C0001215A2800BC082C08390159BE004F0F923
:1027D000D083D0820211ED74F6120E2475082B7589
:1027E0000912780812126F7CFF7D007ACB7B0112F0
:1027F0001E84740212122012375D90026AE4F09077
:10280000026D122962900275122962A3F0A3F0757D
:1028100008B1750910780812126F7C007D007A8368
:102820007B02121E84740212122090133674FF125F
:10283000295990133E7464F0901340E4F0A374E0BF
:10284000F0A37493F0A31229A875084E75091378A4
:102850000812126F7C467D137A457B131216F874AA
:1028600002121220901346E0640190133570047434
:102870000280027401F09001F9E4F09013481229EB
:102880006290028A74FFF0901351E4F090134CF0C0
:1028900090024D12296290024BF090024AF0900291
:1028A0004CF09001F9F090021EF0901347F0900266
:1028B0001F12296275080CF509780812126F7C0046
:1028C0007D007A237B02121E847402121220750886
:1028D00009780812126F7CFF7D007A2F7B02121E8E
:1028E000847402121220901350741A1229AAA3049D
:1028F0001229AAA37407123762901346E06401708C
:10290000069013567497F09013577405F0A3743221
:10291000123762A3F090025174FE12295990135B92
:10292000F09001CBF090135DF0A3F0901360F09065
:1029300013E3F0A3F09013EEF07AE57B1312193253
:1029400090162CE0540F240B9013F21229AAA374B2
:1029500030F0A3742AF0024E96F0A3E4F0A3F0A3A3
:10296000F022F0A3F0A3F0A3F022C082C083900174
:10297000D5E4F0900204F090020FF090021AF0906B
:1029800001D674FFF0900205F0900210F090021B47
:10299000F090159EE4F090159BF0901599740B1231
:1029A00029AA90159D0227997404F0A3E4F02274DB
:1029B000EC120E248A088B098C0A8D0B740B780894
:1029C00012123AE508F50C7F008078850C10E4F5CA
:1029D00011F512F5138F08F509F50A781079081228
:1029E0001336740B78101211A9FAAB11AC12AD1397
:1029F00004F9121494750800750908780812126F0A
:102A00007C8C7D027A007B0074332FF912185A7483
:102A100002121220750902780812126F7C8C7D0256
:102A2000850C0A8F08E50A2508F508E43400F50945
:102A300074097808121349FAAB091218607402126B
:102A400012200F121602E9F8EFC39850030229CBA7
:102A500002472774F7120E247800790074091214C3
:102A600030E0FEA3E0FF801FEA28F582EB39F58312
:102A7000E0F508EC28F582ED39F583E06508F0E82B
:102A8000240108E93400F9C3E89EE99F40DA025DB9
:102A9000F174E8120E2474F41212827401121430CC
:102AA000E9F08A0C8B0D8C0E8D0F7407121430E434
:102AB000F0A3F0FEFF7405121430E4F0A3F004124A
:102AC0001430E064046008E0640660030230408A69
:102AD000088B098C0A8D0B740B780812123A851832
:102AE00082851983E508F08A088B09740778081233
:102AF00013F1E508540FF5088E09901345E0F870BE
:102B0000067AF87B02802274016870067A507B0393
:102B1000801774036870067AA07B04800C740268C6
:102B200060030230407A307B06901335E064027017
:102B300007EAC333FAEB33FB850C10850D118C12B9
:102B40008D137402781012123AE5102AF516E51169
:102B50003BF517750A80780A12126F7CFF7D007AA8
:102B60009F7B15121E8474021212207409121430F5
:102B70007433F0750A40780A12126F7C617D137A03
:102B8000007B00793312185A7402121220780A124C
:102B9000126F7CA17D137A407B00793312185A742E
:102BA00002121220740A12143074801229AA90138F
:102BB00061E0F9A3E0F8A3E064116003023040A3F0
:102BC000E06422600302304074031214301229A81A
:102BD000E824FEF50AE934FFF50B7401121430E025
:102BE00064066003022D5B9088B5780C1212986021
:102BF00003022D5B8E0C750D04780C12126F7C8C09
:102C00007D027A007B047402121430E0F912185A23
:102C10007402121220851882851983E0F912186651
:102C2000022D5BE0C0E07407121430123077D0E060
:102C3000F074071214301249F27407121430E06471
:102C4000807002A3E06003022F7E7407121430121A
:102C5000305AF50C750D007409780C121349AB0D40
:102C6000E508450970437E00EBFF7401121430E063
:102C700064067028750D08780C12126F7C8C7D022A
:102C80007A007B007402121430E0F912185A7402B0
:102C90001212207405121430E4F0A3F08518828516
:102CA0001983E0F9121866801785080C85090D74E0
:102CB00005780C121349E50C54E0F8E50D1230507C
:102CC0001230484003022F867401121430E064066B
:102CD000702A750C80750D00780C12126F7C9F7D28
:102CE00015740712143012308512148274021212F5
:102CF000207405121430E024801249F5750C2075FB
:102D00000D00780C12126F7C9F7D15EEFAEFFB120E
:102D100018607402121220750C80780C12126F7CED
:102D2000FF7D007A9F7B15121E84740212122012FE
:102D300030667002E509700F851882851983E004FA
:102D4000F075080075090074031214301249F2E599
:102D50000A24FFF50AE50B34FFF50BE50A450B7075
:102D600003022F867403121430C3E09441A3E0944D
:102D70000040737403121430E024C0F0A3E034FF69
:102D8000F0750C40750D00780C12126F7CA17D134C
:102D90007A617B13121E787402121220740A1214C4
:102DA00030E07004A3E0640870117409121430E07C
:102DB00004F0740A121430E4F0A3F0780C12126FCD
:102DC0007CA17D13740C121430123395740B121401
:102DD00030E0F912185A7402121220740A121430D8
:102DE000E024401249F5740312143012308FC0E011
:102DF0007402121430D0E0F064B46003022C237427
:102E0000031214301249F2740312143012308FC0BE
:102E1000E07402121430D0E0F064B47003022C238A
:102E200074031214301249F2740312143012308FEA
:102E3000F50CE4F50DF50EF50FF510F511F512F59D
:102E400013022ECB7401121430E06406702A75143C
:102E500080751500781412126F7C9F7D157407120F
:102E6000143012308512148274021212207405126A
:102E70001430E024801249F575142075150078147B
:102E800012126F7C9F7D15EEFAEFFB121860740230
:102E9000121220751480781412126F7CFF7D007A54
:102EA0009F7B15121E84740212122012306670026B
:102EB000E509700F7508007509008518828519836A
:102EC000E004F09089517810121323780C791012D5
:102ED00012AD4003022F7E7402121430E0C0E07481
:102EE00007121430123077D0E0F074071214301249
:102EF00049F27407121430E064807002A3E070C3DA
:102F0000740712143012305AF514751500740978CC
:102F100014121349AB15E508450970437E00EBFF19
:102F20007401121430E064067028751508781412C4
:102F3000126F7C8C7D027A007B007402121430E0E8
:102F4000F912185A74021212207405121430E4F0A7
:102F5000A3F0851882851983E0F912186680178519
:102F6000081485091574057814121349E51454E002
:102F7000F8E5151230501230485003022E4412303A
:102F8000485003022D47851882851983E0F50A759C
:102F90000B007409780A121349AB0BE50845097058
:102FA000457E00EBFF7401121430E06406702A8E37
:102FB00008750908780812126F7C8C7D027A007BF4
:102FC000007402121430E0F912185A74021212201E
:102FD0007405121430E4F0A3F0851882851983E09B
:102FE000F9121866801174057808121349E508541F
:102FF000E0F8E509123050123048504474011214C0
:1030000030E06406701F7508807509007808121298
:103010006F7C9F7D15740712143012308512148254
:103020007402121220750820750900780812126FB8
:103030007C9F7D15EEFAEFFB1218607402121220CD
:10304000740C1212200249D5C3EE9516EF95172283
:10305000543FF9E428FEEB39FF22E4F0A3F0851891
:1030600082851983E022E5082401F508E50934008A
:10307000F5097410650822E0249FF8A3E03415F9DF
:103080008882898322E0248CFAA3E03402FB22E0C8
:103090002461F8A3E03413F988828983E022C08296
:1030A000C083900289E090162DF0F8900288E068C5
:1030B000901B26600474FF8001E4F08000E002278A
:1030C000CF74F3120E248A088B098C0A8D0B890C9D
:1030D000740B780812123AAE08FF8007EEF9121846
:1030E000660E0FEFC3950C40F37F05020FF674F0E8
:1030F000120E2474F81212827404121430741EF02A
:10310000A374ABF0A374DEF0A3740AF090028712EC
:103110003F0C1211A91239747808790C1212FD743F
:103120000878081211A9A3E0F50C7808790C12129E
:10313000FD85188285198378081213E28518828527
:10314000198378081213D3E5085403602685188282
:1031500085198378081213D39089157808121323E0
:1031600090887978081212EA851882851983780880
:103170001213E200750801750900780812126F74C5
:1031800002121430AC82AD837A307B661218607400
:103190000212122000780812126F7406121430AC5A
:1031A00082AD837A317B6612186074021212207924
:1031B000011215A27900740802459974F4120E24C4
:1031C000EA2433F508F9121866750A00750B0278BF
:1031D0000A12126F7C967D02750900740978081234
:1031E0001349FAAB0912186074020251AD74F61259
:1031F0000E24EAFE740A1214301233958C088D09DD
:10320000780812126FEAFCEBFD7A007B00EE2433A3
:10321000F912185A74021212207900024E9674F6AE
:10322000120E24748812128285188285198374FF05
:10323000F0A312474112126F7CE57D13740412143F
:1032400030AA82AB83121E78740212122075080213
:10325000780812126F7402121430AC82AD83740CB1
:10326000121430AA82AB83121E78740212122090BC
:103270000267E0C0E07412121430D0E0F074131250
:1032800014307410F0741412143074AAF0741512FF
:103290001430E4F074181214307404F0741612141C
:1032A00030E4F074171214307401F0FC041214307E
:1032B000AA82AB8379041215787478024E9374F65F
:1032C000120E247488121282851882851983E4F004
:1032D000A3F0750808F509780812126F7CE57D13D4
:1032E0007404121430AA82AB83121E787402121274
:1032F00020750802780812126F7402121430AC8222
:10330000AD83740C121430AA82AB83121E7874023F
:10331000121220900267E0C0E07412121430D0E064
:10332000F074131214307410F0741412143074AA60
:10333000F07415121430E4F074181214307404F0A0
:103340007416121430E4F074171214307401F0FC87
:1033500004121430AA82AB83790412157E0232B9AA
:1033600074F4120E248A088B098C0A8D0B740C12CB
:103370001430123395740E121430E0FC740F1214D2
:1033800030E0FD780A12126F780812126F12169E42
:1033900074040251ADE0FAA3E0FB2274F0120E2493
:1033A000748A121282E9FE8A088B09750A76750BF7
:1033B00000780A12126F7CFE7D007402121430AA8B
:1033C00082AB83121E847402121220750A08780AD6
:1033D00012126F7CE57D137402121430AA82AB8343
:1033E000121E787402121220780A12126FAC08AD05
:1033F00009740A121430AA82AB83121E7874021266
:103400001220900267E0C0E07410121430D0E0F097
:1034100074111214307410F074121214307402F01B
:1034200074131214307470124FF2C0E07416121438
:1034300030D0E0F090026AE0C0E07417121430D08F
:10344000E0F090026AE004F074181214307430F066
:10345000750A07780A12126F7C1E7D1B741B1214EA
:1034600030AA82AB83121E78740212122090133A93
:10347000780C1213D37420121430E50CF07421125E
:103480001430EEF090026BE0F47003A3E0F47003EC
:1034900012375D90026CE0C0E07422121430D0E06C
:1034A000F090026BE0C0E07423121430D0E0F09092
:1034B000133EE0C0E07424121430D0E0F01214E89F
:1034C0007425121430E9F090024BE004C0E0742639
:1034D000121430D0E0F09013E3E0C0E0742712142F
:1034E00030D0E0F0750A08780A12126FAC08AD0906
:1034F0007A2E7B16121E7274021212208B0BEA4572
:103500000B601B750A03750B00780A12126F7CFFA3
:103510007D007AEF7B13121E847402121220750A4A
:1035200008750B00780A12126FAC08AD097A2E7B71
:1035300016121E7874021212209013EFE0C0E0748D
:1035400028121430D0E0F09013F0E0C0E07429129B
:103550001430D0E0F09013F1E0C0E0742A1214307F
:10356000D0E0F090024CE07009742B12143074011A
:103570008006742B121430E4F0901351E0C0E07414
:103580002C121430D0E012376A1213D37418780852
:1035900012123A742D1214301237681213D37410A9
:1035A000780812123A742E1214301237681213D39C
:1035B000E509F508742F1214301237681213D3740A
:1035C00030121430E508F090134FE0C0E07431126F
:1035D0001430D0E0F09013E1E0C0E0743212143007
:1035E000D0E0F09001D5E0F91215FC7433121430DC
:1035F000E9F0901360E0F91215FC7434121430E90C
:10360000F0901352E0C0E07435121430D0E0F09026
:103610001352E064016003023738A3E0C0E074365F
:10362000121430D0E0123BF612126F7C397D027416
:1036300039121430AA82AB83121E7874021212203F
:10364000780812126F7C3D7D02743D121430AA82FC
:10365000AB83121E787402121220780812126F7C4B
:10366000427D027441121430AA82AB83121E787418
:1036700002121220780812126F7C467D02744512E5
:103680001430AA82AB83121E787402121220901397
:1036900054E0C0E07447121430D0E0F0901355E0CD
:1036A000C0E07448121430D0E0F0901356E0C0E04F
:1036B0007449121430D0E0F0901357E0C0E0744A1F
:1036C000121430D0E0F0901358E0C0E0744B1214A4
:1036D00030D0E0F0901359E0C0E0744C121430D0B8
:1036E000E0F090135AE0C0E0744D121430D0E0F0D6
:1036F000900252E0C0E0744E121430D0E0F090021C
:1037000053E0C0E0744F121430D0E0F0900254E067
:10371000C0E07450121430D0E0F090135BE0C0E0D1
:103720007451121430D0E0F07414121430E4F074B8
:1037300015121430743C800E7414121430E4F074BA
:10374000151214307420F07C02851882851983AA22
:1037500082AB837903121578747602459990026BD7
:10376000742CF0A37401F022E508F090024D780863
:103770002274EA120E24EA4B7005790202396912AA
:103780003C00858208858309E0F9600A24F670030D
:1037900002396C023969901352E4126687FA8E82FC
:1037A0008F83A3A3A3A3A3A3A3A3A3A3E0F9EA9056
:1037B000026B1262A78E828F83A3A3A3A3A3A3A3EA
:1037C000A31239748E828F83A3A3A3A3123F18126E
:1037D00011A9780C79101213368E828F83A3A3A3BC
:1037E000A3A3A3A3123C101211A9780C79101213F1
:1037F000368E828F83A3A3A3A3A3A3123C05121129
:10380000A9780C791012133690021F780C1213E26B
:10381000750A04750B00780A12126FEE2402FCEF91
:103820003400FD7A717B02121E787402121220EEAF
:10383000240DF8EF3400F9EE2411F512EF3400F501
:1038400013EE240CFAEF3400FBEE2416F510EF34DF
:1038500000F511EE2415F50EEF3400F50FEE2414EB
:10386000F50CEF3400F50DEE2413F50AEF3400F5F6
:103870000B901356E0FC850A82850B83E06C705632
:10388000901357E0FC850C82850D83E06C704790A7
:103890001358E0FC850E82850F83E06C703890131E
:1038A00059E0FC851082851183E06C702990135BD0
:1038B000E0FC8A828B83E06C701C901354E0FC85E2
:1038C0001282851383E06C700D90135AE0FC88829D
:1038D0008983E06C60069013527401F0850882853C
:1038E0000983E0F460098A828B83E090135BF0889F
:1038F000828983E090135AF0EE240E12668B9013A7
:1039000047F0751402751500781412126FEE240F2B
:10391000FCEF3400FD7A607B02121E7874021212F2
:1039200020851282851383E0901354F0EE24121246
:10393000668B901355123BE9F8901356F0C3949898
:10394000400874FF6860037497F0850C82850D83CE
:10395000E0901357123BE0901358F08510828511C8
:1039600083E090135912519DF9024214901352743E
:103970000102379AA312397922E0F50CE4F50DF52E
:103980000EF50F2274EA120E248A0C8B0DEA450DF7
:103990007003023BD7123C00858214858315E02416
:1039A000F5C394104003023BD7EE24101262AC1210
:1039B00045ADEE240F1262AC123F1C1211A978081B
:1039C0007910121336EE240E1262AC123C10121152
:1039D000A978087910121336EE240D1262AC123C4D
:1039E000051211A9780879101213361216088A10D8
:1039F0008B118C128D13780879101213A3500302C7
:103A00003BD7EE240C125C55F9EE2412F50EEF3480
:103A100000F50FEE2411F508EF3400F5099001E0F0
:103A2000E0697029900265E0F8850882850983E0E5
:103A300068701A9013E3E0697013A3E0F8850E82B2
:103A4000850F83E0687006901B26E48005901B2696
:103A500074FFF0E50C2410F582E50D12507F8514FB
:103A600082851583E09001DFF0750C08750D0078F4
:103A70000C12126F124734121E7874021212207543
:103A80000CB1750D10780C12126F7C007D007A83DA
:103A90007B02121E8474021212208E828F83A3A3D3
:103AA000A3A3A3A3A3A3A3A3E090132B12668790C1
:103AB0000283123BE990028A12546D12126FEE24B7
:103AC0000DFCEF3400FD7A847B02121E7874021222
:103AD0001220850882850983E0900288123BE090DD
:103AE0001329F0EE241312668B90132A123BF61260
:103AF000126FEE2414FCEF3400FD7A2C7B13121E9F
:103B0000787402121220780812126FEE2418FCEF5B
:103B10003400FD7A307B13121E787402121220EEEC
:103B2000241712668BF508E4F50AEE24161262AC2F
:103B30001245D21211A97808790C121336EE241509
:103B40001262AC1245C71211A97808790C1213360B
:103B5000EE24141262AC1245BC1211A97808790C3B
:103B6000121336EE241CFEEF3400FF750C04780CA3
:103B700012126FEEFCEFFD7A257B13121E78740291
:103B8000121220780C12126FEEFCEFFD7A717B029C
:103B9000121E78740212122090021F78081213C3AA
:103BA000501C90024BE0FA901329E024FFF8E43413
:103BB000FFF9E86A7001E9700590024AE4F09002AA
:103BC00089E4F01216029088751214191214949058
:103BD0000283E064137004790280027900024214C7
:103BE000F0850E82850F83E022123BED22F0850ADC
:103BF00082850B83E022F07508047509007808229D
:103C0000124299A322E0F510E4F5127418781022FC
:103C1000124276741078102274F6120E24748A12EE
:103C20001282750876750900780812126F7CFE7D85
:103C3000007402121430AA82AB83121E8474021222
:103C40001220900267E0C0E07410121430D0E0F04F
:103C500074111214307410F0741212143012405394
:103C600064067009741312143074428007741312BE
:103C700014307432124FF2C0E07416121430D0E0D7
:103C8000F09001DFE0C0E07417121430D0E0124E63
:103C90004412126F7CD77D01741A121430AA82ABC1
:103CA00083121E78740212122090132BE0C0E0746D
:103CB00020121430D0E0124055C0E07421121430AC
:103CC000D0E0F090028AE0C0E07422121430D0E01C
:103CD00012489312126F7C847D027425121430AA4C
:103CE00082AB83121E787402121220900288E0C008
:103CF000E07427121430D0E01245A7C0E0742812F7
:103D00001430D0E01245A1C0E07429121430D0E084
:103D1000F0780812126F7C2C7D13742C121430AAC8
:103D200082AB83121E787402121220780812126F6E
:103D30007C307D137430121430AA82AB83121E784B
:103D40007402121220780812126F7C257D137434CD
:103D5000121430AA82AB83121E78740212122074DD
:103D600014121430E4F074151214307420024E4B07
:103D700074E8120E248C168D17EA4B700579020236
:103D80003F0812428E1211A9123F0B1211A9780C92
:103D900079081212FD12427D1212FD8E828F83A3CA
:103DA000A3A3E0F508741078081211A9123F1412A9
:103DB00011A9780879101212FD1242651212FD78CD
:103DC00008790C1213A340271242356003023F0604
:103DD000EA2415F514EB3400F515851482F583E01B
:103DE000C39461500A90887178081211C8500579FF
:103DF00004023F081242A11213E290128C780C12B6
:103E000013E290895178101213D390129478101203
:103E10001310E50875F058A4F508A8F075F058E5FA
:103E200009A428F50985148285158312425A751054
:103E300000751110781012126F7CFF7D007A8C7B58
:103E400002121E847402121220780A12126F124299
:103E500019121E787402121220E50A54036003122C
:103E600042267402780A1213F1780A12126F7C8CBF
:103E70007D02850810850911E4F512F51390887507
:103E800078101213237402781012123AAA10AB1190
:103E90001218607402121220851482851583E024A2
:103EA000F8F510E434FFF5113395E0F512F51385BC
:103EB000100A85110B780A12126F7C8C7D02AA08F9
:103EC000AB09793312185A740212122078101212A8
:103ED0006B7A8C7B0212156C7404121220E9F89034
:103EE0000289E028F090129478081213D3E4F509BF
:103EF000F50AF50B780C79081213A3400985168290
:103F00008517837401F079000249D5A31245B17475
:103F1000087808228E828F83A3A3A3A312472C7450
:103F20000878102274EC120E24748A121282750C16
:103F300000750D00750E00750F0075087675090087
:103F4000780812126F7CFE7D007402121430AA826F
:103F5000AB83121E847402121220900267E0C0E04C
:103F60007410121430D0E0F074111214307410F088
:103F70007412121430124053640670097413121430
:103F8000307448800774131214307438F090128C17
:103F900078101213D3E510451145124513701674AD
:103FA00016121430E4F07417121430E4F07418127E
:103FB0001430E48028850C08850D0912424C702FBE
:103FC0007416121430E4F0E509F508741712143071
:103FD000E508F0850C087418121430E508F0741424
:103FE000121430E4F074151214307403F080119040
:103FF0008951780C1213237810790C1213A340B551
:10400000750808750900780812126F7CE57D137435
:1040100002121430AA82AB83121E7874021212208C
:10402000780812126F7CD77D01740A121430AA82AC
:10403000AB83121E7874021212207C0285188285CE
:104040001983AA82AB837903121578747612122031
:104050000247277450F0900283E02274EA120E2483
:104060008C148D15EA4B7005790202421412428EAF
:104070001211A9123F0B1211A9780C79081212FD26
:1040800012427D1212FD8E828F83A3A3A3E0F50856
:10409000741078081211A9123F141211A978087926
:1040A000101212FD1242651212FD7808790C1213DB
:1040B000A340271242356003024212EA2415F5108C
:1040C000EB3400F511851082F583E0C39461500A4A
:1040D00090887178081211C85005790402421412B0
:1040E00042A11213E290128C780C1213E2908951C3
:1040F000780C1213D3901294780C121310E50875F3
:10410000F058A4F508A8F075F058E509A428F509B9
:1041100085108285118312425A750C00750D107836
:104120000C12126F7CFF7D007A8C7B02121E84744D
:1041300002121220780A12126F124219121E78749B
:1041400002121220E50A5403600312422674027818
:104150000A1213F1780A12126F7C8C7D0285080C0A
:1041600085090DE4F50EF50F908875780C12132370
:104170007402780C12123AAA0CAB0D121860740279
:10418000121220851082851183E024F8F50CE434A6
:10419000FFF50D850C10F5113395E0F512F5137848
:1041A0000C12126F7C8C7D02AA08AB0979331218AD
:1041B0005A7402121220781012126B7A8C7B02123F
:1041C000156C7404121220E9F8900289E028F0902E
:1041D000128C780C1213D3E50C450D450E450F607B
:1041E00031751000751100751200751300851008E7
:1041F00085110912424C601A9089517810121323CC
:10420000780C79101213A340E48514828515837409
:1042100001F079007F0E020FF6EE2406FCEF340069
:10422000FD7A8C7B0222E50A54FC2404F50AE50B96
:104230003400F50B2285091174982510F874123595
:1042400011F9E8FCE9FD8C828D83E0227498250841
:10425000F58274123509F583E022E024F8F50AE4CA
:1042600034FFF50B228E828F83A3A3A3A3A3124254
:10427000767808791022E0F510E4F511228E828F0D
:1042800083A3A3E0F508E4F509780C79082212422B
:10429000991239797410780C22124BF48E828F8324
:1042A00022124C4F8C828D837401F090129078080A
:1042B00022C082C083901345E0600814602A146015
:1042C000358041A3E0F890134EE06401700D740155
:1042D000687004791A8039790A803574016870042D
:1042E0007919802C79098028A3E064017004791180
:1042F000801E7901801AA3E064017004791C80108B
:10430000790C800CA3E064017004791280027902B8
:104310000227D074F0120E247489121282E9FE75FD
:104320000876750900780812126F7CFE7D00740310
:10433000121430AA82AB83121E84740212122090CF
:104340000267E0C0E07411121430D0E0F074121271
:1043500014307410F07413121430124053F87406B1
:104360006870097414121430744D80077414121498
:1043700030743D124FF2C0E07417121430D0E0F0E8
:104380007418121430EEF090132BE0C0E074191280
:104390001430D0E0F0741A121430E8F090028AE081
:1043A000C0E0741B121430D0E012489312126F7CDC
:1043B000847D02741E121430AA82AB83121E78749C
:1043C00002121220900288E0C0E07420121430D053
:1043D000E01245A7C0E07421121430D0E01245A1CC
:1043E000C0E07422121430D0E0F0780812126F7C12
:1043F0002C7D137425121430AA82AB83121E78749C
:1044000002121220780812126F7C307D1374291268
:104410001430AA82AB83121E787402121220741513
:10442000121430E4F074161214307414124E441244
:10443000126F7CE57D137403121430AA82AB8312D1
:104440001E787402121220780812126F7CD77D0138
:10445000740B121430AA82AB83121E7874021212EB
:10446000207C037401121430AA82AB8379031215E5
:1044700078E9FF901B26E0600302458F900288E0F8
:10448000900265F090028AE09001E01245A7F89052
:1044900013E41245A1851882851983F09013E31265
:1044A000305DC0E0E875F009A4F8A9F0742628F59D
:1044B00082740239F583D0E01245A1C0E09013293F
:1044C000E0F874EE28F58274131262AFD0E0F09039
:1044D000132FE0F508E4F50AF50B90132E1245D2E0
:1044E0001211A97808790C12133690132D1245C7B2
:1044F0001211A97808790C12133690132C1245BCAE
:104500001211A97808790C121336E5084509450AF5
:10451000450B607B9013331245AD901332E0F50CE0
:10452000E4F50F7408780C1211A97808790C1213AD
:10453000369013311245C71211A97808790C12135D
:10454000369013301245BC1211A97808790C121359
:1045500036E5084509450A450B60347508047509B8
:1045600000780812126F7C2C7D1390132912549836
:10457000121E787402121220780812126F7C307D9D
:104580001390132912548F121E7874021212209065
:104590001B2674FFF0EFF974771212207F08020FC8
:1045A000F6F090132AE022F0901329E0221245B190
:1045B00022E0F508E4F509F50AF50B22E0F50CE434
:1045C000F50E7418780C22E0F50CE4F50D741078F3
:1045D0000C221239797408780C2274EC120E24EA39
:1045E0004B7003024721125483E09001DF124741D0
:1045F00012126F124734121E7874021212207508BC
:1046000040750908780812126F7C007D007A837B60
:1046100002121E8474021212208E828F83A3A3A31F
:10462000A3A3A3A3A3A3A3E0900283126687F8E445
:10463000C8F9EE240C12668B9002841262A7EE2455
:104640000D12668B900286F07508038809780812AF
:10465000126FEE240EFCEF3400FD7A877B02121EEF
:10466000787402121220EE241112668B90028BF0E5
:10467000EE2412F508EF3400F509750A07750B00F2
:10468000780A12126FAC08AD097A8C7B02121E7880
:104690007402121220750A04780A12126FEE24199D
:1046A000FCEF3400FD7ABF7B0A121E7874021212EE
:1046B00020780A12126F7CBF7D0A7A717B02121E6B
:1046C0007874021212209002871245D21211A9A307
:1046D00012472C780C79101212FD7408780C121104
:1046E000A9A3E0F510780C79101212FD750A07786D
:1046F0000A12126F7C1E7D1BAA08AB09121E72746F
:10470000021212208B09EA4509700479088018907A
:104710000290E06430600A908865780C1211C850ED
:10472000047902800279007F0C020FF6124276F5BE
:1047300012F51322EE2402FCEF3400FD7AD77B0140
:1047400022F075080875090078082274F6120E2404
:10475000748A121282750876750900780812126F31
:104760007CFE7D007402121430AA82AB83121E8478
:104770007402121220900267E0C0E074101214302C
:10478000D0E0F074111214307410F074121214305E
:104790007450F074131214307412F07508237808F2
:1047A00012126F7C007D007A9C7B0A121E847402B8
:1047B000121220900A9AE4F0A3F0900294F0A3F071
:1047C00074161214307404F09001DFE0C0E0741726
:1047D000121430D0E0124E4412126F7CD77D017457
:1047E0001A121430AA82AB83121E7874021212209D
:1047F000900283E0C0E07420121430D0E0F0124840
:104800009AC0E07421121430D0E0F07422121430F7
:10481000EAF0900286E0C0E07423121430D0E01277
:10482000489312126F7C877D027426121430AA827C
:10483000AB83121E78740212122090028BE0C0E04B
:104840007427121430D0E0F0750807780812126F40
:104850007C8C7D02742A121430AA82AB83121E78DB
:104860007402121220750804780812126F7CBF7D42
:104870000A7431121430AA82AB83121E78740212A9
:1048800012207414121430E4F07415121430741DD4
:10489000024E4BF0750804780822900A96E0FAA3BD
:1048A000E02274E8120E248C168D1774181214303E
:1048B000E0F512A3E0F513751000751100EA4B70D6
:1048C0000579020249D5EA2416F50AEB3400F50B06
:1048D000124C30FEE94BFFEE24F9F508EF34FFF5FA
:1048E00009850A82850B83A3A3A3A3A3A3E0F514E0
:1048F00085080C85090DE4F50EF50F780C12126B86
:10490000E50A2407FAE50B3400FB12156C74041257
:104910001220E96514600579010249D5850A82856E
:104920000B83124C24850A82850B83A3E01262A4B8
:10493000850A82850B831249DAE0FCE9FD850A824B
:10494000850B83A3A31249DAA3A3E0FAE9FBC3EC26
:104950009AED9B50047904807C900A98ECF0A3EDCA
:10496000124C097012EE24F9FEEF34FFFF9002940E
:10497000E02EF0A3E03FF01249E8803CE50A251064
:10498000F582E50B3511F583A3A3A3A3A3A3A3E0AD
:10499000C0E08A0C8B0D7406780C121349E50C25C7
:1049A00010F8E50D3511124BFDD0E0F0E5102401B3
:1049B000F510E5113400F511C3E5109508E51195E2
:1049C0000940B9EC851282851383F0EA8516828549
:1049D0001783F079007F10020FF6A3A3E0F9850A90
:1049E00082850B83A3A3A322888289837401F0901C
:1049F0000A9AE02401F0A3E03400F02274F6120ECB
:104A000024748A1212827E007F007508768E0978DF
:104A10000812126F7CFE7D007402121430AA82AB61
:104A200083121E847402121220900267E0C0E074A8
:104A300010121430D0E0F074111214307410F074AD
:104A4000121214307450F074131214307418F012DF
:104A500062BEE849702B12489AC0E07416121430F6
:104A6000D0E0F07417121430EAF07418121430E425
:104A7000F07419121430E48043EE24010EEF340078
:104A8000FF900A981262C1C3EE98EF99503E749C51
:104A90002EF582740A3FF583E070DE12489AC0E07A
:104AA0007416121430D0E0F07417121430EAF07457
:104AB00018121430EFF07419121430EEF07414124E
:104AC0001430E4F074151214307404F0750808788A
:104AD0000812126F7CE57D137402121430AA82ABA7
:104AE00083121E787402121220780812126F7CD77B
:104AF0007D01740A024E7174EF120E24EA4B7005A8
:104B00007902024BEF124BF4124C30F508E94BF5E9
:104B100009EA24F9F50AE50934FFF50B8E828F8343
:104B2000A3A3A3A3A3A3E0F510850A0C850B0DE4B2
:104B3000F50EF50F780C12126BEE2407FAEF340025
:104B4000FB12156C7404121220E965106003024B0D
:104B5000ED900A961233958E828F83124C248E82AA
:104B60008F83A3E0F81262A4E86A7002E96B600424
:104B70007964807B8E828F83A3A3124C18A3A3E059
:104B8000FAE9FB8E828F83124C18E0900A98F0A30A
:104B9000E9124C097014E50824F9FCE50934FFFD1D
:104BA000900294E02CF0A3E03DF01249E8750C006F
:104BB000802D8C08EE25081262ACA3A3A3A3A3A3A7
:104BC000A3E0C0E08A088B0974067808121349E54F
:104BD000082CF8E5093400124BFDD0E0F0050C85F7
:104BE0000C82AC82C3EC950AE4950B40C579007F3A
:104BF00009020FF6EA2416FEEB3400FF22F9749640
:104C000028F582740239F58322F0749C2AF8740A1C
:104C10003BF988828983E022A3A3E0F98E828F8307
:104C2000A3A3A322E0F8900A96F0A3E4F0E8F92207
:104C3000124C4FEA2414F582EB126695F9EA24151A
:104C4000F582EB12669524FEFAE434FFFBEA22EAD1
:104C50002410F582EB3400F583E0900267F02274B3
:104C6000F6120E24748A121282E9FE75087675090E
:104C700000780812126F7CFE7D007402121430AAB4
:104C800082AB83121E847402121220900267E0C06D
:104C9000E07410121430D0E0F0741112143074105B
:104CA000F074121214307450F07413121430741D16
:104CB000F074161214307404F0EE600874171214B5
:104CC00030E48007741712143074FFF0900286E00D
:104CD000C0E07418121430D0E0F0750803780812A0
:104CE000126F7C877D02741B121430AA82AB831270
:104CF0001E787402121220900293E0C0E0741C121D
:104D00001430D0E0F0750807780812126F7C8C7DA3
:104D100002741F121430AA82AB83121E787402121E
:104D2000122090026CE0C0E07424121430D0E0F045
:104D300090026BE0C0E07425121430D0E0F09013C4
:104D40003EE0C0E07426121430D0E0F09001E0E0C4
:104D5000C0E07427121430D0E0F09001E5E0C0E02C
:104D60007428121430D0E012489312126F7CE17D47
:104D700001742B121430AA82AB83121E78740212B3
:104D80001220780812126F7CEA7D01742F12143001
:104D9000AA82AB83121E78740212122078081212B3
:104DA0006F7CEE7D017433121430AA82AB83121E25
:104DB000787402121220750807780812126F7C8C22
:104DC0007D027437121430AA82AB83121E787402EB
:104DD0001212201214E8743C121430E9F0743D12DF
:104DE0001430E4F0743E1214307430F07414121461
:104DF00030E4F074151214307429124E4412126FFC
:104E00007CE57D137402121430AA82AB83121E78E3
:104E10007402121220780812126F7CD77D01740A76
:104E2000121430AA82AB83121E7874021212207CF4
:104E300003851882851983AA82AB837903121578BA
:104E40007900804DF0750808780822124E4412123D
:104E50006F7CD77D01740A121430AA82AB83121EB4
:104E6000787402121220780812126F7CE57D137498
:104E700002121430AA82AB83121E7874021212201E
:104E80007C02851882851983AA82AB837903121567
:104E90007874761212207F02020FF6C082C083EA75
:104EA0004B70047902804412569B90135312566C37
:104EB00090135412565FE0901355125675FA9013E2
:104EC00056F0C39498400874FF6A60037497F088A2
:104ED000828983A3A3A3A3A3E090135712567A90C9
:104EE000135812568F901359F079000227D074F698
:104EF000120E24748A121282EAFEEBFF7508767590
:104F00000900780812126F7CFE7D007402121430C2
:104F1000AA82AB83121E84740212122075080878CC
:104F20000812126F7CE57D137402121430AA82AB52
:104F300083121E787402121220780812126FEEFC8F
:104F4000EFFD740A121430AA82AB83121E78740229
:104F5000121220900267E0C0E07410121430D0E00A
:104F6000F07411121430E4F074121214307402F060
:104F700074131214307452F07414121430E4F07478
:104F8000151214307408124FF2C0E0741612143067
:104F9000D0E0F0901353E0C0E07417121430D0E06A
:104FA000F0901354E0C0E07418121430D0E0F09088
:104FB0001355E0C0E07419121430D0E0F09013568D
:104FC000E0C0E0741A121430D0E0F0901357E0C043
:104FD000E0741B121430D0E0F0901358E0C0E0747D
:104FE0001C121430D0E0F0901359E0C0E0741D02A0
:104FF000574DF0901350E02274F4120E24ECFEEDA5
:10500000FFEA4B70047902806DEA2416F508EB3450
:1050100000F509125079850882850983E08E828F18
:10502000831251A28E828F83A3F0750A02750B0042
:10503000780A12126FE5082402FCE5093400FDEE3F
:105040002402FAEF3400FB121E787402121220853B
:10505000088285098312603CF0750A08780A1212EA
:105060006F125192EE2405FAEF3400FB121E787491
:105070000212122079000251B2EA2410F582EB12DA
:105080004C552274F4120E24748A121282EAFEEB3A
:10509000FF8C088D09750A76750B00780A12126F5D
:1050A0007CFE7D007402121430AA82AB83121E842F
:1050B0007402121220750A08780A12126F7CE57DBC
:1050C000137402121430AA82AB83121E7874021277
:1050D0001220780A12126FEEFCEFFD740A121430DF
:1050E000AA82AB83121E787402121220900267E02B
:1050F000C0E07410121430D0E0F07411121430E4D7
:10510000F074121214307402F074131214307456C6
:10511000F07414121430E4F07415121430740D127B
:10512000519DC0E07416121430D0E01251A2C0E0BC
:105130007417121430D0E0126033A3E0C0E074188A
:10514000121430D0E01251A7E0C0E07419121430EC
:10515000D0E01251A7A3E0C0E0741A121430D0E0DE
:10516000F0780A12126F125192741D121430AA8232
:10517000AB83121E7874021212207C02851882857D
:105180001983AA82AB8379031215787476121220E0
:105190008020E5082405FCE5093400FD2212602B7F
:1051A000E022126037E022126037A3A322121220FD
:1051B00079007F04020FF674F6120E24748A12121C
:1051C00082EAFEEBFF750876750900780812126F07
:1051D0007CFE7D007402121430AA82AB83121E84FE
:1051E0007402121220750808780812126F7CE57D8F
:1051F000137402121430AA82AB83121E7874021246
:105200001220780812126FEEFCEFFD740A121430AF
:10521000AA82AB83121E787402121220900267E0F9
:10522000C0E07410121430D0E0F07411121430E4A5
:10523000F074121214307402F07413121430745A91
:1052400002573774F6120E24748A121282EAFEEBA9
:10525000FF750876750900780812126F7CFE7D00D4
:105260007402121430AA82AB83121E8474021212CA
:1052700020750808780812126F7CE57D13740212FD
:105280001430AA82AB83121E78740212122078089E
:1052900012126FEEFCEFFD740A121430AA82AB8377
:1052A000121E787402121220900267E0C0E074109F
:1052B000121430D0E0F07411121430E4F0741212B1
:1052C00014307402F07413121430745E025737C035
:1052D00082C083EA4B70047902800512507979000C
:1052E0000227D074F6120E24748A121282EAFEEBA0
:1052F000FF750876750900780812126F7CFE7D0034
:105300007402121430AA82AB83121E847402121229
:1053100020750808780812126F7CE57D137402125C
:105320001430AA82AB83121E7874021212207808FD
:1053300012126FEEFCEFFD740A121430AA82AB83D6
:10534000121E787402121220900267E0C0E07410FE
:10535000121430D0E0F07411121430E4F074121210
:1053600014307402F074131214307466F074141252
:105370001430E4F07415121430741F124FF2C0E0B0
:105380007416121430D0E0F0900203E0C0E07417FD
:10539000121430D0E0F0900204E0F91215FC7418F9
:1053A000121430E9F0780812126F7CFB7D01741B37
:1053B000121430AA82AB83121E787402121220904B
:1053C000020EE0C0E07421121430D0E0F090020F21
:1053D000E0F91215FC7422121430E9F07808121268
:1053E0006F7C067D027425121430AA82AB83121ED4
:1053F000787402121220900219E0C0E0742B12148B
:1054000030D0E0F090021AE0F91215FC742C12145E
:1054100030E9F0780812126F7C117D02742F024E71
:105420007174F4120E24EA4B70047902803C125419
:1054300083858208858309E090132912546D121226
:105440006FEE2402125477125498121E78740212CE
:105450001220780A12126FEE240612547712548F1B
:10546000121E78740212122079000251B2F0750AED
:1054700004750B00780A22FCEF3400FD8508828554
:10548000098322124BF4124C4F8E828F83A3221277
:105490005584FA740239FB2212558B742728FA744A
:1054A0000239FB2274F6120E24748A121282EAFE6A
:1054B000EBFF750876750900780812126F7CFE7D87
:1054C000007402121430AA82AB83121E847402127A
:1054D0001220750808780812126F7CE57D1374029B
:1054E000121430AA82AB83121E7874021212207832
:1054F0000812126FEEFCEFFD740A121430AA82AB90
:1055000083121E787402121220900267E0C0E074C9
:1055100010121430D0E0F07411121430E4F0741250
:105520001214307402F07413121430746AF074148C
:10553000121430E4F07415121430740A1245A7F9ED
:105540007417121430E912489312126FE975F009BA
:10555000A4F8A9F0742728FC740239FD741A1214F7
:1055600030AA82AB83121E787402121220780812BD
:10557000126F7419121430125584FC740239FD74C0
:105580001E024E7112558B742B2822E075F009A46F
:10559000F8A9F022C082C083EA4B70057902025656
:1055A0005C12569B90022312566CFB88828983A35F
:1055B000A3A3E0900224F0A3EB12567590022612EA
:1055C000565FA3A3E090022712567A900228125643
:1055D0008F90022912568AE090022AF0E82409FAF4
:1055E000E93400FB8A828B83E0F47018900252E069
:1055F00090025DF0900253E090025EF0900254E061
:1056000090025FF08A828B83E090025212568AA346
:10561000A3E0900253F0E8240BF582E912668E9025
:105620000254F0E8240CF582E912668EFBE8240DA2
:10563000F582E912668E90022BF0A3EBF0E8240EBF
:10564000F582E912668EFBE8240FF582E912668E78
:10565000F8EBF990022DE81262A779000227D01228
:10566000566322F088828983A3A3A322F0888289CB
:1056700083A3A3E022125681E022125681A3A3E065
:105680002212568522125663A322125694A3221286
:105690005694E022125685A3A3A322EA2416F8EB1F
:1056A0003400F9124C4F88828983A3E02274F612E9
:1056B0000E24748A121282EAFEEBFF7508767509D1
:1056C00000780812126F7CFE7D007402121430AA5A
:1056D00082AB83121E8474021212207508087808A7
:1056E00012126F7CE57D137402121430AA82AB8310
:1056F000121E787402121220780812126FEEFCEF5C
:10570000FD740A121430AA82AB83121E787402123E
:105710001220900267E0C0E07410121430D0E0F064
:1057200074111214307410F074121214307402F0E8
:1057300074131214307461F07414121430E4F074A1
:10574000151214307401124FF2C0E07416121430A6
:10575000D0E0F0024E8074F6120E24748A12128287
:10576000EAFEEBFF750876750900780812126F7C67
:10577000FE7D007402121430AA82AB83121E847460
:1057800002121220750808780812126F7CE57D134A
:105790007402121430AA82AB83121E7874021212A1
:1057A00020780812126FEEFCEFFD740A121430AA72
:1057B00082AB83121E787402121220900267E0C03E
:1057C000E07410121430D0E0F07411121430E4F0D0
:1057D00074121214307402F074131214307462F0E4
:1057E0007414121430E4F074151214307410124F43
:1057F000F2C0E07416121430D0E0F0900223E0C042
:10580000E07417121430D0E0F0900225E0C0E0748C
:1058100018121430D0E0F0900224E0C0E0741912A5
:105820001430D0E0F0900226E0C0E0741A12143078
:10583000D0E0F0900227E0C0E0741B121430D0E0FA
:10584000F0900228E0C0E0741C121430D0E0F09018
:105850000229E0C0E0741D121430D0E0F090022A5A
:10586000E0C0E0741E121430D0E0F0900252E0C0AC
:10587000E0741F121430D0E0F0900253E0C0E074E6
:1058800020121430D0E0F0900254E0C0E0742112F5
:105890001430D0E0F090022CE0C0E07422121430FA
:1058A000D0E0F090022BE0C0E07423121430D0E07E
:1058B000F090022EE0C0E07424121430D0E0F0909A
:1058C000022DE0C0E0742502574D74EE120E24EA5A
:1058D000FCEBFD7A007B008A0C8A0D8A0E8A0F741D
:1058E0001212143078081213D38021850C10850D04
:1058F00011EC2510F582ED3511F583E0F8EA28FA70
:10590000EB3400FB908951780C1213237808790C42
:105910001213A340D67F0A020FF674EC120E247CF9
:10592000008C0C8C0D8C0E8C0F74141214307810AB
:105930001213D3801B850C08850D09EA2508F58212
:10594000EB3509F583E02CFC908951780C12132378
:105950007810790C1213A340DCECF902472774F697
:10596000120E241262BEE849700479A080227A00E7
:1059700080010A8A08900A981262B45011749C251A
:1059800008F582740A12668E70E879A1800279A205
:10599000024E9674E9120E2474F81212828910EAEB
:1059A000FEEBFF8C16750800751100125C4CF509B2
:1059B000C394614003025AE67403651060097404DD
:1059C00065106003025AE6125CD5601DE4F50DF522
:1059D0000EF50F780C12126BAA14AB151215667423
:1059E00004121220125C63F50974062509125C99F1
:1059F00085090A750B00780A12126FAC14AD157A7E
:105A00003C7B16121E78740212122074FC550CF5A1
:105A10000B7910121614125C1F6510700F8E0E8F0A
:105A20000F780E12126FAC12AD138038740465102B
:105A30007040750E08750F00780E12126F7CFF7D96
:105A4000007402121430AA82AB83121E84740212F4
:105A500012208E0E8F0F780E12126F7402121430F5
:105A6000AC82AD83A90B7A367B1612162074021213
:105A70001220E50AA2E092AF80097A0A7B00121593
:105A8000960511E511C3951650401219EC85110ABF
:105A9000125C345004780080027801E51024FD6027
:105AA0000514602B8040E8F5087808121273A90CE1
:105AB0007C367D16AA12AB131217827401121220C3
:105AC000E9F5081219E6E50870B0A908025C15E8C6
:105AD000F5087808121273A90C7C367D16AA12AB51
